{
	"createErc721.sol": {
		"CreateErc721": {
			"abi": [
				{
					"inputs": [
						{
							"internalType": "string",
							"name": "_name",
							"type": "string"
						},
						{
							"internalType": "string",
							"name": "_symbol",
							"type": "string"
						}
					],
					"stateMutability": "nonpayable",
					"type": "constructor"
				},
				{
					"inputs": [
						{
							"internalType": "address",
							"name": "to",
							"type": "address"
						}
					],
					"name": "_mint",
					"outputs": [
						{
							"internalType": "uint256",
							"name": "",
							"type": "uint256"
						}
					],
					"stateMutability": "nonpayable",
					"type": "function"
				},
				{
					"inputs": [],
					"name": "name",
					"outputs": [
						{
							"internalType": "string",
							"name": "",
							"type": "string"
						}
					],
					"stateMutability": "view",
					"type": "function"
				},
				{
					"inputs": [
						{
							"internalType": "address",
							"name": "",
							"type": "address"
						},
						{
							"internalType": "uint256",
							"name": "",
							"type": "uint256"
						}
					],
					"name": "ownedTokens",
					"outputs": [
						{
							"internalType": "uint256",
							"name": "",
							"type": "uint256"
						}
					],
					"stateMutability": "view",
					"type": "function"
				},
				{
					"inputs": [
						{
							"internalType": "uint256",
							"name": "",
							"type": "uint256"
						}
					],
					"name": "owners",
					"outputs": [
						{
							"internalType": "address",
							"name": "",
							"type": "address"
						}
					],
					"stateMutability": "view",
					"type": "function"
				},
				{
					"inputs": [],
					"name": "symbol",
					"outputs": [
						{
							"internalType": "string",
							"name": "",
							"type": "string"
						}
					],
					"stateMutability": "view",
					"type": "function"
				},
				{
					"inputs": [
						{
							"internalType": "uint256",
							"name": "tokenId",
							"type": "uint256"
						}
					],
					"name": "tokenURI",
					"outputs": [
						{
							"internalType": "string",
							"name": "",
							"type": "string"
						}
					],
					"stateMutability": "view",
					"type": "function"
				},
				{
					"inputs": [
						{
							"internalType": "uint256",
							"name": "",
							"type": "uint256"
						}
					],
					"name": "tokenURIs",
					"outputs": [
						{
							"internalType": "string",
							"name": "",
							"type": "string"
						}
					],
					"stateMutability": "view",
					"type": "function"
				}
			],
			"devdoc": {
				"kind": "dev",
				"methods": {},
				"version": 1
			},
			"evm": {
				"assembly": "    /* \"createErc721.sol\":59:1603  contract CreateErc721 {... */\n  mstore(0x40, 0x80)\n    /* \"createErc721.sol\":366:509  constructor(string memory _name , string memory _symbol) {... */\n  callvalue\n  dup1\n  iszero\n  tag_1\n  jumpi\n  0x00\n  dup1\n  revert\ntag_1:\n  pop\n  mload(0x40)\n  sub(codesize, bytecodeSize)\n  dup1\n  bytecodeSize\n  dup4\n  codecopy\n  dup2\n  dup2\n  add\n  0x40\n  mstore\n  dup2\n  add\n  swap1\n  tag_2\n  swap2\n  swap1\n  tag_3\n  jump\t// in\ntag_2:\n    /* \"createErc721.sol\":442:447  _name */\n  dup2\n    /* \"createErc721.sol\":434:438  name */\n  0x00\n    /* \"createErc721.sol\":434:447  name  = _name */\n  swap1\n  dup2\n  tag_6\n  swap2\n  swap1\n  tag_7\n  jump\t// in\ntag_6:\n  pop\n    /* \"createErc721.sol\":468:475  _symbol */\n  dup1\n    /* \"createErc721.sol\":459:465  symbol */\n  0x01\n    /* \"createErc721.sol\":459:475  symbol = _symbol */\n  swap1\n  dup2\n  tag_8\n  swap2\n  swap1\n  tag_7\n  jump\t// in\ntag_8:\n  pop\n    /* \"createErc721.sol\":500:501  0 */\n  0x00\n    /* \"createErc721.sol\":486:497  totalTokens */\n  0x02\n    /* \"createErc721.sol\":486:501  totalTokens = 0 */\n  dup2\n  swap1\n  sstore\n  pop\n    /* \"createErc721.sol\":366:509  constructor(string memory _name , string memory _symbol) {... */\n  pop\n  pop\n    /* \"createErc721.sol\":59:1603  contract CreateErc721 {... */\n  jump(tag_9)\n    /* \"#utility.yul\":7:82   */\ntag_10:\n    /* \"#utility.yul\":40:46   */\n  0x00\n    /* \"#utility.yul\":73:75   */\n  0x40\n    /* \"#utility.yul\":67:76   */\n  mload\n    /* \"#utility.yul\":57:76   */\n  swap1\n  pop\n    /* \"#utility.yul\":7:82   */\n  swap1\n  jump\t// out\n    /* \"#utility.yul\":88:205   */\ntag_11:\n    /* \"#utility.yul\":197:198   */\n  0x00\n    /* \"#utility.yul\":194:195   */\n  dup1\n    /* \"#utility.yul\":187:199   */\n  revert\n    /* \"#utility.yul\":211:328   */\ntag_12:\n    /* \"#utility.yul\":320:321   */\n  0x00\n    /* \"#utility.yul\":317:318   */\n  dup1\n    /* \"#utility.yul\":310:322   */\n  revert\n    /* \"#utility.yul\":334:451   */\ntag_13:\n    /* \"#utility.yul\":443:444   */\n  0x00\n    /* \"#utility.yul\":440:441   */\n  dup1\n    /* \"#utility.yul\":433:445   */\n  revert\n    /* \"#utility.yul\":457:574   */\ntag_14:\n    /* \"#utility.yul\":566:567   */\n  0x00\n    /* \"#utility.yul\":563:564   */\n  dup1\n    /* \"#utility.yul\":556:568   */\n  revert\n    /* \"#utility.yul\":580:682   */\ntag_15:\n    /* \"#utility.yul\":621:627   */\n  0x00\n    /* \"#utility.yul\":672:674   */\n  0x1f\n    /* \"#utility.yul\":668:675   */\n  not\n    /* \"#utility.yul\":663:665   */\n  0x1f\n    /* \"#utility.yul\":656:661   */\n  dup4\n    /* \"#utility.yul\":652:666   */\n  add\n    /* \"#utility.yul\":648:676   */\n  and\n    /* \"#utility.yul\":638:676   */\n  swap1\n  pop\n    /* \"#utility.yul\":580:682   */\n  swap2\n  swap1\n  pop\n  jump\t// out\n    /* \"#utility.yul\":688:868   */\ntag_16:\n    /* \"#utility.yul\":736:813   */\n  0x4e487b7100000000000000000000000000000000000000000000000000000000\n    /* \"#utility.yul\":733:734   */\n  0x00\n    /* \"#utility.yul\":726:814   */\n  mstore\n    /* \"#utility.yul\":833:837   */\n  0x41\n    /* \"#utility.yul\":830:831   */\n  0x04\n    /* \"#utility.yul\":823:838   */\n  mstore\n    /* \"#utility.yul\":857:861   */\n  0x24\n    /* \"#utility.yul\":854:855   */\n  0x00\n    /* \"#utility.yul\":847:862   */\n  revert\n    /* \"#utility.yul\":874:1155   */\ntag_17:\n    /* \"#utility.yul\":957:984   */\n  tag_51\n    /* \"#utility.yul\":979:983   */\n  dup3\n    /* \"#utility.yul\":957:984   */\n  tag_15\n  jump\t// in\ntag_51:\n    /* \"#utility.yul\":949:955   */\n  dup2\n    /* \"#utility.yul\":945:985   */\n  add\n    /* \"#utility.yul\":1087:1093   */\n  dup2\n    /* \"#utility.yul\":1075:1085   */\n  dup2\n    /* \"#utility.yul\":1072:1094   */\n  lt\n    /* \"#utility.yul\":1051:1069   */\n  0xffffffffffffffff\n    /* \"#utility.yul\":1039:1049   */\n  dup3\n    /* \"#utility.yul\":1036:1070   */\n  gt\n    /* \"#utility.yul\":1033:1095   */\n  or\n    /* \"#utility.yul\":1030:1118   */\n  iszero\n  tag_52\n  jumpi\n    /* \"#utility.yul\":1098:1116   */\n  tag_53\n  tag_16\n  jump\t// in\ntag_53:\n    /* \"#utility.yul\":1030:1118   */\ntag_52:\n    /* \"#utility.yul\":1138:1148   */\n  dup1\n    /* \"#utility.yul\":1134:1136   */\n  0x40\n    /* \"#utility.yul\":1127:1149   */\n  mstore\n    /* \"#utility.yul\":917:1155   */\n  pop\n    /* \"#utility.yul\":874:1155   */\n  pop\n  pop\n  jump\t// out\n    /* \"#utility.yul\":1161:1290   */\ntag_18:\n    /* \"#utility.yul\":1195:1201   */\n  0x00\n    /* \"#utility.yul\":1222:1242   */\n  tag_55\n  tag_10\n  jump\t// in\ntag_55:\n    /* \"#utility.yul\":1212:1242   */\n  swap1\n  pop\n    /* \"#utility.yul\":1251:1284   */\n  tag_56\n    /* \"#utility.yul\":1279:1283   */\n  dup3\n    /* \"#utility.yul\":1271:1277   */\n  dup3\n    /* \"#utility.yul\":1251:1284   */\n  tag_17\n  jump\t// in\ntag_56:\n    /* \"#utility.yul\":1161:1290   */\n  swap2\n  swap1\n  pop\n  jump\t// out\n    /* \"#utility.yul\":1296:1604   */\ntag_19:\n    /* \"#utility.yul\":1358:1362   */\n  0x00\n    /* \"#utility.yul\":1448:1466   */\n  0xffffffffffffffff\n    /* \"#utility.yul\":1440:1446   */\n  dup3\n    /* \"#utility.yul\":1437:1467   */\n  gt\n    /* \"#utility.yul\":1434:1490   */\n  iszero\n  tag_58\n  jumpi\n    /* \"#utility.yul\":1470:1488   */\n  tag_59\n  tag_16\n  jump\t// in\ntag_59:\n    /* \"#utility.yul\":1434:1490   */\ntag_58:\n    /* \"#utility.yul\":1508:1537   */\n  tag_60\n    /* \"#utility.yul\":1530:1536   */\n  dup3\n    /* \"#utility.yul\":1508:1537   */\n  tag_15\n  jump\t// in\ntag_60:\n    /* \"#utility.yul\":1500:1537   */\n  swap1\n  pop\n    /* \"#utility.yul\":1592:1596   */\n  0x20\n    /* \"#utility.yul\":1586:1590   */\n  dup2\n    /* \"#utility.yul\":1582:1597   */\n  add\n    /* \"#utility.yul\":1574:1597   */\n  swap1\n  pop\n    /* \"#utility.yul\":1296:1604   */\n  swap2\n  swap1\n  pop\n  jump\t// out\n    /* \"#utility.yul\":1610:1856   */\ntag_20:\n    /* \"#utility.yul\":1691:1692   */\n  0x00\n    /* \"#utility.yul\":1701:1814   */\ntag_62:\n    /* \"#utility.yul\":1715:1721   */\n  dup4\n    /* \"#utility.yul\":1712:1713   */\n  dup2\n    /* \"#utility.yul\":1709:1722   */\n  lt\n    /* \"#utility.yul\":1701:1814   */\n  iszero\n  tag_64\n  jumpi\n    /* \"#utility.yul\":1800:1801   */\n  dup1\n    /* \"#utility.yul\":1795:1798   */\n  dup3\n    /* \"#utility.yul\":1791:1802   */\n  add\n    /* \"#utility.yul\":1785:1803   */\n  mload\n    /* \"#utility.yul\":1781:1782   */\n  dup2\n    /* \"#utility.yul\":1776:1779   */\n  dup5\n    /* \"#utility.yul\":1772:1783   */\n  add\n    /* \"#utility.yul\":1765:1804   */\n  mstore\n    /* \"#utility.yul\":1737:1739   */\n  0x20\n    /* \"#utility.yul\":1734:1735   */\n  dup2\n    /* \"#utility.yul\":1730:1740   */\n  add\n    /* \"#utility.yul\":1725:1740   */\n  swap1\n  pop\n    /* \"#utility.yul\":1701:1814   */\n  jump(tag_62)\ntag_64:\n    /* \"#utility.yul\":1848:1849   */\n  0x00\n    /* \"#utility.yul\":1839:1845   */\n  dup5\n    /* \"#utility.yul\":1834:1837   */\n  dup5\n    /* \"#utility.yul\":1830:1846   */\n  add\n    /* \"#utility.yul\":1823:1850   */\n  mstore\n    /* \"#utility.yul\":1672:1856   */\n  pop\n    /* \"#utility.yul\":1610:1856   */\n  pop\n  pop\n  pop\n  jump\t// out\n    /* \"#utility.yul\":1862:2296   */\ntag_21:\n    /* \"#utility.yul\":1951:1956   */\n  0x00\n    /* \"#utility.yul\":1976:2042   */\n  tag_66\n    /* \"#utility.yul\":1992:2041   */\n  tag_67\n    /* \"#utility.yul\":2034:2040   */\n  dup5\n    /* \"#utility.yul\":1992:2041   */\n  tag_19\n  jump\t// in\ntag_67:\n    /* \"#utility.yul\":1976:2042   */\n  tag_18\n  jump\t// in\ntag_66:\n    /* \"#utility.yul\":1967:2042   */\n  swap1\n  pop\n    /* \"#utility.yul\":2065:2071   */\n  dup3\n    /* \"#utility.yul\":2058:2063   */\n  dup2\n    /* \"#utility.yul\":2051:2072   */\n  mstore\n    /* \"#utility.yul\":2103:2107   */\n  0x20\n    /* \"#utility.yul\":2096:2101   */\n  dup2\n    /* \"#utility.yul\":2092:2108   */\n  add\n    /* \"#utility.yul\":2141:2144   */\n  dup5\n    /* \"#utility.yul\":2132:2138   */\n  dup5\n    /* \"#utility.yul\":2127:2130   */\n  dup5\n    /* \"#utility.yul\":2123:2139   */\n  add\n    /* \"#utility.yul\":2120:2145   */\n  gt\n    /* \"#utility.yul\":2117:2229   */\n  iszero\n  tag_68\n  jumpi\n    /* \"#utility.yul\":2148:2227   */\n  tag_69\n  tag_14\n  jump\t// in\ntag_69:\n    /* \"#utility.yul\":2117:2229   */\ntag_68:\n    /* \"#utility.yul\":2238:2290   */\n  tag_70\n    /* \"#utility.yul\":2283:2289   */\n  dup5\n    /* \"#utility.yul\":2278:2281   */\n  dup3\n    /* \"#utility.yul\":2273:2276   */\n  dup6\n    /* \"#utility.yul\":2238:2290   */\n  tag_20\n  jump\t// in\ntag_70:\n    /* \"#utility.yul\":1957:2296   */\n  pop\n    /* \"#utility.yul\":1862:2296   */\n  swap4\n  swap3\n  pop\n  pop\n  pop\n  jump\t// out\n    /* \"#utility.yul\":2316:2671   */\ntag_22:\n    /* \"#utility.yul\":2383:2388   */\n  0x00\n    /* \"#utility.yul\":2432:2435   */\n  dup3\n    /* \"#utility.yul\":2425:2429   */\n  0x1f\n    /* \"#utility.yul\":2417:2423   */\n  dup4\n    /* \"#utility.yul\":2413:2430   */\n  add\n    /* \"#utility.yul\":2409:2436   */\n  slt\n    /* \"#utility.yul\":2399:2521   */\n  tag_72\n  jumpi\n    /* \"#utility.yul\":2440:2519   */\n  tag_73\n  tag_13\n  jump\t// in\ntag_73:\n    /* \"#utility.yul\":2399:2521   */\ntag_72:\n    /* \"#utility.yul\":2550:2556   */\n  dup2\n    /* \"#utility.yul\":2544:2557   */\n  mload\n    /* \"#utility.yul\":2575:2665   */\n  tag_74\n    /* \"#utility.yul\":2661:2664   */\n  dup5\n    /* \"#utility.yul\":2653:2659   */\n  dup3\n    /* \"#utility.yul\":2646:2650   */\n  0x20\n    /* \"#utility.yul\":2638:2644   */\n  dup7\n    /* \"#utility.yul\":2634:2651   */\n  add\n    /* \"#utility.yul\":2575:2665   */\n  tag_21\n  jump\t// in\ntag_74:\n    /* \"#utility.yul\":2566:2665   */\n  swap2\n  pop\n    /* \"#utility.yul\":2389:2671   */\n  pop\n    /* \"#utility.yul\":2316:2671   */\n  swap3\n  swap2\n  pop\n  pop\n  jump\t// out\n    /* \"#utility.yul\":2677:3530   */\ntag_3:\n    /* \"#utility.yul\":2776:2782   */\n  0x00\n    /* \"#utility.yul\":2784:2790   */\n  dup1\n    /* \"#utility.yul\":2833:2835   */\n  0x40\n    /* \"#utility.yul\":2821:2830   */\n  dup4\n    /* \"#utility.yul\":2812:2819   */\n  dup6\n    /* \"#utility.yul\":2808:2831   */\n  sub\n    /* \"#utility.yul\":2804:2836   */\n  slt\n    /* \"#utility.yul\":2801:2920   */\n  iszero\n  tag_76\n  jumpi\n    /* \"#utility.yul\":2839:2918   */\n  tag_77\n  tag_11\n  jump\t// in\ntag_77:\n    /* \"#utility.yul\":2801:2920   */\ntag_76:\n    /* \"#utility.yul\":2980:2981   */\n  0x00\n    /* \"#utility.yul\":2969:2978   */\n  dup4\n    /* \"#utility.yul\":2965:2982   */\n  add\n    /* \"#utility.yul\":2959:2983   */\n  mload\n    /* \"#utility.yul\":3010:3028   */\n  0xffffffffffffffff\n    /* \"#utility.yul\":3002:3008   */\n  dup2\n    /* \"#utility.yul\":2999:3029   */\n  gt\n    /* \"#utility.yul\":2996:3113   */\n  iszero\n  tag_78\n  jumpi\n    /* \"#utility.yul\":3032:3111   */\n  tag_79\n  tag_12\n  jump\t// in\ntag_79:\n    /* \"#utility.yul\":2996:3113   */\ntag_78:\n    /* \"#utility.yul\":3137:3211   */\n  tag_80\n    /* \"#utility.yul\":3203:3210   */\n  dup6\n    /* \"#utility.yul\":3194:3200   */\n  dup3\n    /* \"#utility.yul\":3183:3192   */\n  dup7\n    /* \"#utility.yul\":3179:3201   */\n  add\n    /* \"#utility.yul\":3137:3211   */\n  tag_22\n  jump\t// in\ntag_80:\n    /* \"#utility.yul\":3127:3211   */\n  swap3\n  pop\n    /* \"#utility.yul\":2930:3221   */\n  pop\n    /* \"#utility.yul\":3281:3283   */\n  0x20\n    /* \"#utility.yul\":3270:3279   */\n  dup4\n    /* \"#utility.yul\":3266:3284   */\n  add\n    /* \"#utility.yul\":3260:3285   */\n  mload\n    /* \"#utility.yul\":3312:3330   */\n  0xffffffffffffffff\n    /* \"#utility.yul\":3304:3310   */\n  dup2\n    /* \"#utility.yul\":3301:3331   */\n  gt\n    /* \"#utility.yul\":3298:3415   */\n  iszero\n  tag_81\n  jumpi\n    /* \"#utility.yul\":3334:3413   */\n  tag_82\n  tag_12\n  jump\t// in\ntag_82:\n    /* \"#utility.yul\":3298:3415   */\ntag_81:\n    /* \"#utility.yul\":3439:3513   */\n  tag_83\n    /* \"#utility.yul\":3505:3512   */\n  dup6\n    /* \"#utility.yul\":3496:3502   */\n  dup3\n    /* \"#utility.yul\":3485:3494   */\n  dup7\n    /* \"#utility.yul\":3481:3503   */\n  add\n    /* \"#utility.yul\":3439:3513   */\n  tag_22\n  jump\t// in\ntag_83:\n    /* \"#utility.yul\":3429:3513   */\n  swap2\n  pop\n    /* \"#utility.yul\":3231:3523   */\n  pop\n    /* \"#utility.yul\":2677:3530   */\n  swap3\n  pop\n  swap3\n  swap1\n  pop\n  jump\t// out\n    /* \"#utility.yul\":3536:3635   */\ntag_23:\n    /* \"#utility.yul\":3588:3594   */\n  0x00\n    /* \"#utility.yul\":3622:3627   */\n  dup2\n    /* \"#utility.yul\":3616:3628   */\n  mload\n    /* \"#utility.yul\":3606:3628   */\n  swap1\n  pop\n    /* \"#utility.yul\":3536:3635   */\n  swap2\n  swap1\n  pop\n  jump\t// out\n    /* \"#utility.yul\":3641:3821   */\ntag_24:\n    /* \"#utility.yul\":3689:3766   */\n  0x4e487b7100000000000000000000000000000000000000000000000000000000\n    /* \"#utility.yul\":3686:3687   */\n  0x00\n    /* \"#utility.yul\":3679:3767   */\n  mstore\n    /* \"#utility.yul\":3786:3790   */\n  0x22\n    /* \"#utility.yul\":3783:3784   */\n  0x04\n    /* \"#utility.yul\":3776:3791   */\n  mstore\n    /* \"#utility.yul\":3810:3814   */\n  0x24\n    /* \"#utility.yul\":3807:3808   */\n  0x00\n    /* \"#utility.yul\":3800:3815   */\n  revert\n    /* \"#utility.yul\":3827:4147   */\ntag_25:\n    /* \"#utility.yul\":3871:3877   */\n  0x00\n    /* \"#utility.yul\":3908:3909   */\n  0x02\n    /* \"#utility.yul\":3902:3906   */\n  dup3\n    /* \"#utility.yul\":3898:3910   */\n  div\n    /* \"#utility.yul\":3888:3910   */\n  swap1\n  pop\n    /* \"#utility.yul\":3955:3956   */\n  0x01\n    /* \"#utility.yul\":3949:3953   */\n  dup3\n    /* \"#utility.yul\":3945:3957   */\n  and\n    /* \"#utility.yul\":3976:3994   */\n  dup1\n    /* \"#utility.yul\":3966:4047   */\n  tag_87\n  jumpi\n    /* \"#utility.yul\":4032:4036   */\n  0x7f\n    /* \"#utility.yul\":4024:4030   */\n  dup3\n    /* \"#utility.yul\":4020:4037   */\n  and\n    /* \"#utility.yul\":4010:4037   */\n  swap2\n  pop\n    /* \"#utility.yul\":3966:4047   */\ntag_87:\n    /* \"#utility.yul\":4094:4096   */\n  0x20\n    /* \"#utility.yul\":4086:4092   */\n  dup3\n    /* \"#utility.yul\":4083:4097   */\n  lt\n    /* \"#utility.yul\":4063:4081   */\n  dup2\n    /* \"#utility.yul\":4060:4098   */\n  sub\n    /* \"#utility.yul\":4057:4141   */\n  tag_88\n  jumpi\n    /* \"#utility.yul\":4113:4131   */\n  tag_89\n  tag_24\n  jump\t// in\ntag_89:\n    /* \"#utility.yul\":4057:4141   */\ntag_88:\n    /* \"#utility.yul\":3878:4147   */\n  pop\n    /* \"#utility.yul\":3827:4147   */\n  swap2\n  swap1\n  pop\n  jump\t// out\n    /* \"#utility.yul\":4153:4294   */\ntag_26:\n    /* \"#utility.yul\":4202:4206   */\n  0x00\n    /* \"#utility.yul\":4225:4228   */\n  dup2\n    /* \"#utility.yul\":4217:4228   */\n  swap1\n  pop\n    /* \"#utility.yul\":4248:4251   */\n  dup2\n    /* \"#utility.yul\":4245:4246   */\n  0x00\n    /* \"#utility.yul\":4238:4252   */\n  mstore\n    /* \"#utility.yul\":4282:4286   */\n  0x20\n    /* \"#utility.yul\":4279:4280   */\n  0x00\n    /* \"#utility.yul\":4269:4287   */\n  keccak256\n    /* \"#utility.yul\":4261:4287   */\n  swap1\n  pop\n    /* \"#utility.yul\":4153:4294   */\n  swap2\n  swap1\n  pop\n  jump\t// out\n    /* \"#utility.yul\":4300:4393   */\ntag_27:\n    /* \"#utility.yul\":4337:4343   */\n  0x00\n    /* \"#utility.yul\":4384:4386   */\n  0x20\n    /* \"#utility.yul\":4379:4381   */\n  0x1f\n    /* \"#utility.yul\":4372:4377   */\n  dup4\n    /* \"#utility.yul\":4368:4382   */\n  add\n    /* \"#utility.yul\":4364:4387   */\n  div\n    /* \"#utility.yul\":4354:4387   */\n  swap1\n  pop\n    /* \"#utility.yul\":4300:4393   */\n  swap2\n  swap1\n  pop\n  jump\t// out\n    /* \"#utility.yul\":4399:4506   */\ntag_28:\n    /* \"#utility.yul\":4443:4451   */\n  0x00\n    /* \"#utility.yul\":4493:4498   */\n  dup3\n    /* \"#utility.yul\":4487:4491   */\n  dup3\n    /* \"#utility.yul\":4483:4499   */\n  shl\n    /* \"#utility.yul\":4462:4499   */\n  swap1\n  pop\n    /* \"#utility.yul\":4399:4506   */\n  swap3\n  swap2\n  pop\n  pop\n  jump\t// out\n    /* \"#utility.yul\":4512:4905   */\ntag_29:\n    /* \"#utility.yul\":4581:4587   */\n  0x00\n    /* \"#utility.yul\":4631:4632   */\n  0x08\n    /* \"#utility.yul\":4619:4629   */\n  dup4\n    /* \"#utility.yul\":4615:4633   */\n  mul\n    /* \"#utility.yul\":4654:4751   */\n  tag_94\n    /* \"#utility.yul\":4684:4750   */\n  0xffffffffffffffffffffffffffffffffffffffffffffffffffffffffffffffff\n    /* \"#utility.yul\":4673:4682   */\n  dup3\n    /* \"#utility.yul\":4654:4751   */\n  tag_28\n  jump\t// in\ntag_94:\n    /* \"#utility.yul\":4772:4811   */\n  tag_95\n    /* \"#utility.yul\":4802:4810   */\n  dup7\n    /* \"#utility.yul\":4791:4800   */\n  dup4\n    /* \"#utility.yul\":4772:4811   */\n  tag_28\n  jump\t// in\ntag_95:\n    /* \"#utility.yul\":4760:4811   */\n  swap6\n  pop\n    /* \"#utility.yul\":4844:4848   */\n  dup1\n    /* \"#utility.yul\":4840:4849   */\n  not\n    /* \"#utility.yul\":4833:4838   */\n  dup5\n    /* \"#utility.yul\":4829:4850   */\n  and\n    /* \"#utility.yul\":4820:4850   */\n  swap4\n  pop\n    /* \"#utility.yul\":4893:4897   */\n  dup1\n    /* \"#utility.yul\":4883:4891   */\n  dup7\n    /* \"#utility.yul\":4879:4898   */\n  and\n    /* \"#utility.yul\":4872:4877   */\n  dup5\n    /* \"#utility.yul\":4869:4899   */\n  or\n    /* \"#utility.yul\":4859:4899   */\n  swap3\n  pop\n    /* \"#utility.yul\":4588:4905   */\n  pop\n  pop\n    /* \"#utility.yul\":4512:4905   */\n  swap4\n  swap3\n  pop\n  pop\n  pop\n  jump\t// out\n    /* \"#utility.yul\":4911:4988   */\ntag_30:\n    /* \"#utility.yul\":4948:4955   */\n  0x00\n    /* \"#utility.yul\":4977:4982   */\n  dup2\n    /* \"#utility.yul\":4966:4982   */\n  swap1\n  pop\n    /* \"#utility.yul\":4911:4988   */\n  swap2\n  swap1\n  pop\n  jump\t// out\n    /* \"#utility.yul\":4994:5054   */\ntag_31:\n    /* \"#utility.yul\":5022:5025   */\n  0x00\n    /* \"#utility.yul\":5043:5048   */\n  dup2\n    /* \"#utility.yul\":5036:5048   */\n  swap1\n  pop\n    /* \"#utility.yul\":4994:5054   */\n  swap2\n  swap1\n  pop\n  jump\t// out\n    /* \"#utility.yul\":5060:5202   */\ntag_32:\n    /* \"#utility.yul\":5110:5119   */\n  0x00\n    /* \"#utility.yul\":5143:5196   */\n  tag_99\n    /* \"#utility.yul\":5161:5195   */\n  tag_100\n    /* \"#utility.yul\":5170:5194   */\n  tag_101\n    /* \"#utility.yul\":5188:5193   */\n  dup5\n    /* \"#utility.yul\":5170:5194   */\n  tag_30\n  jump\t// in\ntag_101:\n    /* \"#utility.yul\":5161:5195   */\n  tag_31\n  jump\t// in\ntag_100:\n    /* \"#utility.yul\":5143:5196   */\n  tag_30\n  jump\t// in\ntag_99:\n    /* \"#utility.yul\":5130:5196   */\n  swap1\n  pop\n    /* \"#utility.yul\":5060:5202   */\n  swap2\n  swap1\n  pop\n  jump\t// out\n    /* \"#utility.yul\":5208:5283   */\ntag_33:\n    /* \"#utility.yul\":5251:5254   */\n  0x00\n    /* \"#utility.yul\":5272:5277   */\n  dup2\n    /* \"#utility.yul\":5265:5277   */\n  swap1\n  pop\n    /* \"#utility.yul\":5208:5283   */\n  swap2\n  swap1\n  pop\n  jump\t// out\n    /* \"#utility.yul\":5289:5558   */\ntag_34:\n    /* \"#utility.yul\":5399:5438   */\n  tag_104\n    /* \"#utility.yul\":5430:5437   */\n  dup4\n    /* \"#utility.yul\":5399:5438   */\n  tag_32\n  jump\t// in\ntag_104:\n    /* \"#utility.yul\":5460:5551   */\n  tag_105\n    /* \"#utility.yul\":5509:5550   */\n  tag_106\n    /* \"#utility.yul\":5533:5549   */\n  dup3\n    /* \"#utility.yul\":5509:5550   */\n  tag_33\n  jump\t// in\ntag_106:\n    /* \"#utility.yul\":5501:5507   */\n  dup5\n    /* \"#utility.yul\":5494:5498   */\n  dup5\n    /* \"#utility.yul\":5488:5499   */\n  sload\n    /* \"#utility.yul\":5460:5551   */\n  tag_29\n  jump\t// in\ntag_105:\n    /* \"#utility.yul\":5454:5458   */\n  dup3\n    /* \"#utility.yul\":5447:5552   */\n  sstore\n    /* \"#utility.yul\":5365:5558   */\n  pop\n    /* \"#utility.yul\":5289:5558   */\n  pop\n  pop\n  pop\n  jump\t// out\n    /* \"#utility.yul\":5564:5637   */\ntag_35:\n    /* \"#utility.yul\":5609:5612   */\n  0x00\n    /* \"#utility.yul\":5564:5637   */\n  swap1\n  jump\t// out\n    /* \"#utility.yul\":5643:5832   */\ntag_36:\n    /* \"#utility.yul\":5720:5752   */\n  tag_109\n  tag_35\n  jump\t// in\ntag_109:\n    /* \"#utility.yul\":5761:5826   */\n  tag_110\n    /* \"#utility.yul\":5819:5825   */\n  dup2\n    /* \"#utility.yul\":5811:5817   */\n  dup5\n    /* \"#utility.yul\":5805:5809   */\n  dup5\n    /* \"#utility.yul\":5761:5826   */\n  tag_34\n  jump\t// in\ntag_110:\n    /* \"#utility.yul\":5696:5832   */\n  pop\n    /* \"#utility.yul\":5643:5832   */\n  pop\n  pop\n  jump\t// out\n    /* \"#utility.yul\":5838:6024   */\ntag_37:\n    /* \"#utility.yul\":5898:6018   */\ntag_112:\n    /* \"#utility.yul\":5915:5918   */\n  dup2\n    /* \"#utility.yul\":5908:5913   */\n  dup2\n    /* \"#utility.yul\":5905:5919   */\n  lt\n    /* \"#utility.yul\":5898:6018   */\n  iszero\n  tag_114\n  jumpi\n    /* \"#utility.yul\":5969:6008   */\n  tag_115\n    /* \"#utility.yul\":6006:6007   */\n  0x00\n    /* \"#utility.yul\":5999:6004   */\n  dup3\n    /* \"#utility.yul\":5969:6008   */\n  tag_36\n  jump\t// in\ntag_115:\n    /* \"#utility.yul\":5942:5943   */\n  0x01\n    /* \"#utility.yul\":5935:5940   */\n  dup2\n    /* \"#utility.yul\":5931:5944   */\n  add\n    /* \"#utility.yul\":5922:5944   */\n  swap1\n  pop\n    /* \"#utility.yul\":5898:6018   */\n  jump(tag_112)\ntag_114:\n    /* \"#utility.yul\":5838:6024   */\n  pop\n  pop\n  jump\t// out\n    /* \"#utility.yul\":6030:6573   */\ntag_38:\n    /* \"#utility.yul\":6131:6133   */\n  0x1f\n    /* \"#utility.yul\":6126:6129   */\n  dup3\n    /* \"#utility.yul\":6123:6134   */\n  gt\n    /* \"#utility.yul\":6120:6566   */\n  iszero\n  tag_117\n  jumpi\n    /* \"#utility.yul\":6165:6203   */\n  tag_118\n    /* \"#utility.yul\":6197:6202   */\n  dup2\n    /* \"#utility.yul\":6165:6203   */\n  tag_26\n  jump\t// in\ntag_118:\n    /* \"#utility.yul\":6249:6278   */\n  tag_119\n    /* \"#utility.yul\":6267:6277   */\n  dup5\n    /* \"#utility.yul\":6249:6278   */\n  tag_27\n  jump\t// in\ntag_119:\n    /* \"#utility.yul\":6239:6247   */\n  dup2\n    /* \"#utility.yul\":6235:6279   */\n  add\n    /* \"#utility.yul\":6432:6434   */\n  0x20\n    /* \"#utility.yul\":6420:6430   */\n  dup6\n    /* \"#utility.yul\":6417:6435   */\n  lt\n    /* \"#utility.yul\":6414:6463   */\n  iszero\n  tag_120\n  jumpi\n    /* \"#utility.yul\":6453:6461   */\n  dup2\n    /* \"#utility.yul\":6438:6461   */\n  swap1\n  pop\n    /* \"#utility.yul\":6414:6463   */\ntag_120:\n    /* \"#utility.yul\":6476:6556   */\n  tag_121\n    /* \"#utility.yul\":6532:6554   */\n  tag_122\n    /* \"#utility.yul\":6550:6553   */\n  dup6\n    /* \"#utility.yul\":6532:6554   */\n  tag_27\n  jump\t// in\ntag_122:\n    /* \"#utility.yul\":6522:6530   */\n  dup4\n    /* \"#utility.yul\":6518:6555   */\n  add\n    /* \"#utility.yul\":6505:6516   */\n  dup3\n    /* \"#utility.yul\":6476:6556   */\n  tag_37\n  jump\t// in\ntag_121:\n    /* \"#utility.yul\":6135:6566   */\n  pop\n  pop\n    /* \"#utility.yul\":6120:6566   */\ntag_117:\n    /* \"#utility.yul\":6030:6573   */\n  pop\n  pop\n  pop\n  jump\t// out\n    /* \"#utility.yul\":6579:6696   */\ntag_39:\n    /* \"#utility.yul\":6633:6641   */\n  0x00\n    /* \"#utility.yul\":6683:6688   */\n  dup3\n    /* \"#utility.yul\":6677:6681   */\n  dup3\n    /* \"#utility.yul\":6673:6689   */\n  shr\n    /* \"#utility.yul\":6652:6689   */\n  swap1\n  pop\n    /* \"#utility.yul\":6579:6696   */\n  swap3\n  swap2\n  pop\n  pop\n  jump\t// out\n    /* \"#utility.yul\":6702:6871   */\ntag_40:\n    /* \"#utility.yul\":6746:6752   */\n  0x00\n    /* \"#utility.yul\":6779:6830   */\n  tag_125\n    /* \"#utility.yul\":6827:6828   */\n  0x00\n    /* \"#utility.yul\":6823:6829   */\n  not\n    /* \"#utility.yul\":6815:6820   */\n  dup5\n    /* \"#utility.yul\":6812:6813   */\n  0x08\n    /* \"#utility.yul\":6808:6821   */\n  mul\n    /* \"#utility.yul\":6779:6830   */\n  tag_39\n  jump\t// in\ntag_125:\n    /* \"#utility.yul\":6775:6831   */\n  not\n    /* \"#utility.yul\":6860:6864   */\n  dup1\n    /* \"#utility.yul\":6854:6858   */\n  dup4\n    /* \"#utility.yul\":6850:6865   */\n  and\n    /* \"#utility.yul\":6840:6865   */\n  swap2\n  pop\n    /* \"#utility.yul\":6753:6871   */\n  pop\n    /* \"#utility.yul\":6702:6871   */\n  swap3\n  swap2\n  pop\n  pop\n  jump\t// out\n    /* \"#utility.yul\":6876:7171   */\ntag_41:\n    /* \"#utility.yul\":6952:6956   */\n  0x00\n    /* \"#utility.yul\":7098:7127   */\n  tag_127\n    /* \"#utility.yul\":7123:7126   */\n  dup4\n    /* \"#utility.yul\":7117:7121   */\n  dup4\n    /* \"#utility.yul\":7098:7127   */\n  tag_40\n  jump\t// in\ntag_127:\n    /* \"#utility.yul\":7090:7127   */\n  swap2\n  pop\n    /* \"#utility.yul\":7160:7163   */\n  dup3\n    /* \"#utility.yul\":7157:7158   */\n  0x02\n    /* \"#utility.yul\":7153:7164   */\n  mul\n    /* \"#utility.yul\":7147:7151   */\n  dup3\n    /* \"#utility.yul\":7144:7165   */\n  or\n    /* \"#utility.yul\":7136:7165   */\n  swap1\n  pop\n    /* \"#utility.yul\":6876:7171   */\n  swap3\n  swap2\n  pop\n  pop\n  jump\t// out\n    /* \"#utility.yul\":7176:8571   */\ntag_7:\n    /* \"#utility.yul\":7293:7330   */\n  tag_129\n    /* \"#utility.yul\":7326:7329   */\n  dup3\n    /* \"#utility.yul\":7293:7330   */\n  tag_23\n  jump\t// in\ntag_129:\n    /* \"#utility.yul\":7395:7413   */\n  0xffffffffffffffff\n    /* \"#utility.yul\":7387:7393   */\n  dup2\n    /* \"#utility.yul\":7384:7414   */\n  gt\n    /* \"#utility.yul\":7381:7437   */\n  iszero\n  tag_130\n  jumpi\n    /* \"#utility.yul\":7417:7435   */\n  tag_131\n  tag_16\n  jump\t// in\ntag_131:\n    /* \"#utility.yul\":7381:7437   */\ntag_130:\n    /* \"#utility.yul\":7461:7499   */\n  tag_132\n    /* \"#utility.yul\":7493:7497   */\n  dup3\n    /* \"#utility.yul\":7487:7498   */\n  sload\n    /* \"#utility.yul\":7461:7499   */\n  tag_25\n  jump\t// in\ntag_132:\n    /* \"#utility.yul\":7546:7613   */\n  tag_133\n    /* \"#utility.yul\":7606:7612   */\n  dup3\n    /* \"#utility.yul\":7598:7604   */\n  dup3\n    /* \"#utility.yul\":7592:7596   */\n  dup6\n    /* \"#utility.yul\":7546:7613   */\n  tag_38\n  jump\t// in\ntag_133:\n    /* \"#utility.yul\":7640:7641   */\n  0x00\n    /* \"#utility.yul\":7664:7668   */\n  0x20\n    /* \"#utility.yul\":7651:7668   */\n  swap1\n  pop\n    /* \"#utility.yul\":7696:7698   */\n  0x1f\n    /* \"#utility.yul\":7688:7694   */\n  dup4\n    /* \"#utility.yul\":7685:7699   */\n  gt\n    /* \"#utility.yul\":7713:7714   */\n  0x01\n    /* \"#utility.yul\":7708:8326   */\n  dup2\n  eq\n  tag_135\n  jumpi\n    /* \"#utility.yul\":8370:8371   */\n  0x00\n    /* \"#utility.yul\":8387:8393   */\n  dup5\n    /* \"#utility.yul\":8384:8461   */\n  iszero\n  tag_136\n  jumpi\n    /* \"#utility.yul\":8436:8445   */\n  dup3\n    /* \"#utility.yul\":8431:8434   */\n  dup8\n    /* \"#utility.yul\":8427:8446   */\n  add\n    /* \"#utility.yul\":8421:8447   */\n  mload\n    /* \"#utility.yul\":8412:8447   */\n  swap1\n  pop\n    /* \"#utility.yul\":8384:8461   */\ntag_136:\n    /* \"#utility.yul\":8487:8554   */\n  tag_137\n    /* \"#utility.yul\":8547:8553   */\n  dup6\n    /* \"#utility.yul\":8540:8545   */\n  dup3\n    /* \"#utility.yul\":8487:8554   */\n  tag_41\n  jump\t// in\ntag_137:\n    /* \"#utility.yul\":8481:8485   */\n  dup7\n    /* \"#utility.yul\":8474:8555   */\n  sstore\n    /* \"#utility.yul\":8343:8565   */\n  pop\n    /* \"#utility.yul\":7678:8565   */\n  jump(tag_134)\n    /* \"#utility.yul\":7708:8326   */\ntag_135:\n    /* \"#utility.yul\":7760:7764   */\n  0x1f\n    /* \"#utility.yul\":7756:7765   */\n  not\n    /* \"#utility.yul\":7748:7754   */\n  dup5\n    /* \"#utility.yul\":7744:7766   */\n  and\n    /* \"#utility.yul\":7794:7831   */\n  tag_138\n    /* \"#utility.yul\":7826:7830   */\n  dup7\n    /* \"#utility.yul\":7794:7831   */\n  tag_26\n  jump\t// in\ntag_138:\n    /* \"#utility.yul\":7853:7854   */\n  0x00\n    /* \"#utility.yul\":7867:8075   */\ntag_139:\n    /* \"#utility.yul\":7881:7888   */\n  dup3\n    /* \"#utility.yul\":7878:7879   */\n  dup2\n    /* \"#utility.yul\":7875:7889   */\n  lt\n    /* \"#utility.yul\":7867:8075   */\n  iszero\n  tag_141\n  jumpi\n    /* \"#utility.yul\":7960:7969   */\n  dup5\n    /* \"#utility.yul\":7955:7958   */\n  dup10\n    /* \"#utility.yul\":7951:7970   */\n  add\n    /* \"#utility.yul\":7945:7971   */\n  mload\n    /* \"#utility.yul\":7937:7943   */\n  dup3\n    /* \"#utility.yul\":7930:7972   */\n  sstore\n    /* \"#utility.yul\":8011:8012   */\n  0x01\n    /* \"#utility.yul\":8003:8009   */\n  dup3\n    /* \"#utility.yul\":7999:8013   */\n  add\n    /* \"#utility.yul\":7989:8013   */\n  swap2\n  pop\n    /* \"#utility.yul\":8058:8060   */\n  0x20\n    /* \"#utility.yul\":8047:8056   */\n  dup6\n    /* \"#utility.yul\":8043:8061   */\n  add\n    /* \"#utility.yul\":8030:8061   */\n  swap5\n  pop\n    /* \"#utility.yul\":7904:7908   */\n  0x20\n    /* \"#utility.yul\":7901:7902   */\n  dup2\n    /* \"#utility.yul\":7897:7909   */\n  add\n    /* \"#utility.yul\":7892:7909   */\n  swap1\n  pop\n    /* \"#utility.yul\":7867:8075   */\n  jump(tag_139)\ntag_141:\n    /* \"#utility.yul\":8103:8109   */\n  dup7\n    /* \"#utility.yul\":8094:8101   */\n  dup4\n    /* \"#utility.yul\":8091:8110   */\n  lt\n    /* \"#utility.yul\":8088:8267   */\n  iszero\n  tag_142\n  jumpi\n    /* \"#utility.yul\":8161:8170   */\n  dup5\n    /* \"#utility.yul\":8156:8159   */\n  dup10\n    /* \"#utility.yul\":8152:8171   */\n  add\n    /* \"#utility.yul\":8146:8172   */\n  mload\n    /* \"#utility.yul\":8204:8252   */\n  tag_143\n    /* \"#utility.yul\":8246:8250   */\n  0x1f\n    /* \"#utility.yul\":8238:8244   */\n  dup10\n    /* \"#utility.yul\":8234:8251   */\n  and\n    /* \"#utility.yul\":8223:8232   */\n  dup3\n    /* \"#utility.yul\":8204:8252   */\n  tag_40\n  jump\t// in\ntag_143:\n    /* \"#utility.yul\":8196:8202   */\n  dup4\n    /* \"#utility.yul\":8189:8253   */\n  sstore\n    /* \"#utility.yul\":8111:8267   */\n  pop\n    /* \"#utility.yul\":8088:8267   */\ntag_142:\n    /* \"#utility.yul\":8313:8314   */\n  0x01\n    /* \"#utility.yul\":8309:8310   */\n  0x02\n    /* \"#utility.yul\":8301:8307   */\n  dup9\n    /* \"#utility.yul\":8297:8311   */\n  mul\n    /* \"#utility.yul\":8293:8315   */\n  add\n    /* \"#utility.yul\":8287:8291   */\n  dup9\n    /* \"#utility.yul\":8280:8316   */\n  sstore\n    /* \"#utility.yul\":7715:8326   */\n  pop\n  pop\n  pop\n    /* \"#utility.yul\":7678:8565   */\ntag_134:\n  pop\n    /* \"#utility.yul\":7268:8571   */\n  pop\n  pop\n  pop\n    /* \"#utility.yul\":7176:8571   */\n  pop\n  pop\n  jump\t// out\n    /* \"createErc721.sol\":59:1603  contract CreateErc721 {... */\ntag_9:\n  dataSize(sub_0)\n  dup1\n  dataOffset(sub_0)\n  0x00\n  codecopy\n  0x00\n  return\nstop\n\nsub_0: assembly {\n        /* \"createErc721.sol\":59:1603  contract CreateErc721 {... */\n      mstore(0x40, 0x80)\n      callvalue\n      dup1\n      iszero\n      tag_1\n      jumpi\n      0x00\n      dup1\n      revert\n    tag_1:\n      pop\n      jumpi(tag_2, lt(calldatasize, 0x04))\n      shr(0xe0, calldataload(0x00))\n      dup1\n      0x6c8b703f\n      gt\n      tag_10\n      jumpi\n      dup1\n      0x6c8b703f\n      eq\n      tag_6\n      jumpi\n      dup1\n      0x95d89b41\n      eq\n      tag_7\n      jumpi\n      dup1\n      0xc87b56dd\n      eq\n      tag_8\n      jumpi\n      dup1\n      0xe149f036\n      eq\n      tag_9\n      jumpi\n      jump(tag_2)\n    tag_10:\n      dup1\n      0x025e7c27\n      eq\n      tag_3\n      jumpi\n      dup1\n      0x06fdde03\n      eq\n      tag_4\n      jumpi\n      dup1\n      0x09aa7b67\n      eq\n      tag_5\n      jumpi\n    tag_2:\n      0x00\n      dup1\n      revert\n        /* \"createErc721.sol\":214:255  mapping(uint256 => address) public owners */\n    tag_3:\n      tag_11\n      0x04\n      dup1\n      calldatasize\n      sub\n      dup2\n      add\n      swap1\n      tag_12\n      swap2\n      swap1\n      tag_13\n      jump\t// in\n    tag_12:\n      tag_14\n      jump\t// in\n    tag_11:\n      mload(0x40)\n      tag_15\n      swap2\n      swap1\n      tag_16\n      jump\t// in\n    tag_15:\n      mload(0x40)\n      dup1\n      swap2\n      sub\n      swap1\n      return\n        /* \"createErc721.sol\":88:106  string public name */\n    tag_4:\n      tag_17\n      tag_18\n      jump\t// in\n    tag_17:\n      mload(0x40)\n      tag_19\n      swap2\n      swap1\n      tag_20\n      jump\t// in\n    tag_19:\n      mload(0x40)\n      dup1\n      swap2\n      sub\n      swap1\n      return\n        /* \"createErc721.sol\":545:765  function _mint(address to ) public returns (uint){... */\n    tag_5:\n      tag_21\n      0x04\n      dup1\n      calldatasize\n      sub\n      dup2\n      add\n      swap1\n      tag_22\n      swap2\n      swap1\n      tag_23\n      jump\t// in\n    tag_22:\n      tag_24\n      jump\t// in\n    tag_21:\n      mload(0x40)\n      tag_25\n      swap2\n      swap1\n      tag_26\n      jump\t// in\n    tag_25:\n      mload(0x40)\n      dup1\n      swap2\n      sub\n      swap1\n      return\n        /* \"createErc721.sol\":317:359  mapping (uint => string ) public tokenURIs */\n    tag_6:\n      tag_27\n      0x04\n      dup1\n      calldatasize\n      sub\n      dup2\n      add\n      swap1\n      tag_28\n      swap2\n      swap1\n      tag_13\n      jump\t// in\n    tag_28:\n      tag_29\n      jump\t// in\n    tag_27:\n      mload(0x40)\n      tag_30\n      swap2\n      swap1\n      tag_20\n      jump\t// in\n    tag_30:\n      mload(0x40)\n      dup1\n      swap2\n      sub\n      swap1\n      return\n        /* \"createErc721.sol\":114:134  string public symbol */\n    tag_7:\n      tag_31\n      tag_32\n      jump\t// in\n    tag_31:\n      mload(0x40)\n      tag_33\n      swap2\n      swap1\n      tag_20\n      jump\t// in\n    tag_33:\n      mload(0x40)\n      dup1\n      swap2\n      sub\n      swap1\n      return\n        /* \"createErc721.sol\":773:1022  function tokenURI(uint256 tokenId) public view returns (string memory) {... */\n    tag_8:\n      tag_34\n      0x04\n      dup1\n      calldatasize\n      sub\n      dup2\n      add\n      swap1\n      tag_35\n      swap2\n      swap1\n      tag_13\n      jump\t// in\n    tag_35:\n      tag_36\n      jump\t// in\n    tag_34:\n      mload(0x40)\n      tag_37\n      swap2\n      swap1\n      tag_20\n      jump\t// in\n    tag_37:\n      mload(0x40)\n      dup1\n      swap2\n      sub\n      swap1\n      return\n        /* \"createErc721.sol\":262:310  mapping(address => uint256[]) public ownedTokens */\n    tag_9:\n      tag_38\n      0x04\n      dup1\n      calldatasize\n      sub\n      dup2\n      add\n      swap1\n      tag_39\n      swap2\n      swap1\n      tag_40\n      jump\t// in\n    tag_39:\n      tag_41\n      jump\t// in\n    tag_38:\n      mload(0x40)\n      tag_42\n      swap2\n      swap1\n      tag_26\n      jump\t// in\n    tag_42:\n      mload(0x40)\n      dup1\n      swap2\n      sub\n      swap1\n      return\n        /* \"createErc721.sol\":214:255  mapping(uint256 => address) public owners */\n    tag_14:\n      mstore(0x20, 0x04)\n      dup1\n      0x00\n      mstore\n      keccak256(0x00, 0x40)\n      0x00\n      swap2\n      pop\n      sload\n      swap1\n      0x0100\n      exp\n      swap1\n      div\n      0xffffffffffffffffffffffffffffffffffffffff\n      and\n      dup2\n      jump\t// out\n        /* \"createErc721.sol\":88:106  string public name */\n    tag_18:\n      0x00\n      dup1\n      sload\n      tag_43\n      swap1\n      tag_44\n      jump\t// in\n    tag_43:\n      dup1\n      0x1f\n      add\n      0x20\n      dup1\n      swap2\n      div\n      mul\n      0x20\n      add\n      mload(0x40)\n      swap1\n      dup2\n      add\n      0x40\n      mstore\n      dup1\n      swap3\n      swap2\n      swap1\n      dup2\n      dup2\n      mstore\n      0x20\n      add\n      dup3\n      dup1\n      sload\n      tag_45\n      swap1\n      tag_44\n      jump\t// in\n    tag_45:\n      dup1\n      iszero\n      tag_46\n      jumpi\n      dup1\n      0x1f\n      lt\n      tag_47\n      jumpi\n      0x0100\n      dup1\n      dup4\n      sload\n      div\n      mul\n      dup4\n      mstore\n      swap2\n      0x20\n      add\n      swap2\n      jump(tag_46)\n    tag_47:\n      dup3\n      add\n      swap2\n      swap1\n      0x00\n      mstore\n      keccak256(0x00, 0x20)\n      swap1\n    tag_48:\n      dup2\n      sload\n      dup2\n      mstore\n      swap1\n      0x01\n      add\n      swap1\n      0x20\n      add\n      dup1\n      dup4\n      gt\n      tag_48\n      jumpi\n      dup3\n      swap1\n      sub\n      0x1f\n      and\n      dup3\n      add\n      swap2\n    tag_46:\n      pop\n      pop\n      pop\n      pop\n      pop\n      dup2\n      jump\t// out\n        /* \"createErc721.sol\":545:765  function _mint(address to ) public returns (uint){... */\n    tag_24:\n        /* \"createErc721.sol\":589:593  uint */\n      0x00\n        /* \"createErc721.sol\":605:617  uint tokenId */\n      dup1\n        /* \"createErc721.sol\":635:636  1 */\n      0x01\n        /* \"createErc721.sol\":621:632  totalTokens */\n      sload(0x02)\n        /* \"createErc721.sol\":621:636  totalTokens + 1 */\n      tag_50\n      swap2\n      swap1\n      tag_51\n      jump\t// in\n    tag_50:\n        /* \"createErc721.sol\":605:636  uint tokenId =  totalTokens + 1 */\n      swap1\n      pop\n        /* \"createErc721.sol\":666:668  to */\n      dup3\n        /* \"createErc721.sol\":648:654  owners */\n      0x04\n        /* \"createErc721.sol\":648:663  owners[tokenId] */\n      0x00\n        /* \"createErc721.sol\":655:662  tokenId */\n      dup4\n        /* \"createErc721.sol\":648:663  owners[tokenId] */\n      dup2\n      mstore\n      0x20\n      add\n      swap1\n      dup2\n      mstore\n      0x20\n      add\n      0x00\n      keccak256\n      0x00\n        /* \"createErc721.sol\":648:668  owners[tokenId] = to */\n      0x0100\n      exp\n      dup2\n      sload\n      dup2\n      0xffffffffffffffffffffffffffffffffffffffff\n      mul\n      not\n      and\n      swap1\n      dup4\n      0xffffffffffffffffffffffffffffffffffffffff\n      and\n      mul\n      or\n      swap1\n      sstore\n      pop\n        /* \"createErc721.sol\":679:690  ownedTokens */\n      0x05\n        /* \"createErc721.sol\":679:694  ownedTokens[to] */\n      0x00\n        /* \"createErc721.sol\":691:693  to */\n      dup5\n        /* \"createErc721.sol\":679:694  ownedTokens[to] */\n      0xffffffffffffffffffffffffffffffffffffffff\n      and\n      0xffffffffffffffffffffffffffffffffffffffff\n      and\n      dup2\n      mstore\n      0x20\n      add\n      swap1\n      dup2\n      mstore\n      0x20\n      add\n      0x00\n      keccak256\n        /* \"createErc721.sol\":700:707  tokenId */\n      dup2\n        /* \"createErc721.sol\":679:708  ownedTokens[to].push(tokenId) */\n      swap1\n      dup1\n      0x01\n      dup2\n      sload\n      add\n      dup1\n      dup3\n      sstore\n      dup1\n      swap2\n      pop\n      pop\n      0x01\n      swap1\n      sub\n      swap1\n      0x00\n      mstore\n      keccak256(0x00, 0x20)\n      add\n      0x00\n      swap1\n      swap2\n      swap1\n      swap2\n      swap1\n      swap2\n      pop\n      sstore\n        /* \"createErc721.sol\":719:730  totalTokens */\n      0x02\n      0x00\n        /* \"createErc721.sol\":719:732  totalTokens++ */\n      dup2\n      sload\n      dup1\n      swap3\n      swap2\n      swap1\n      tag_53\n      swap1\n      tag_54\n      jump\t// in\n    tag_53:\n      swap2\n      swap1\n      pop\n      sstore\n      pop\n        /* \"createErc721.sol\":750:757  tokenId */\n      dup1\n        /* \"createErc721.sol\":743:757  return tokenId */\n      swap2\n      pop\n      pop\n        /* \"createErc721.sol\":545:765  function _mint(address to ) public returns (uint){... */\n      swap2\n      swap1\n      pop\n      jump\t// out\n        /* \"createErc721.sol\":317:359  mapping (uint => string ) public tokenURIs */\n    tag_29:\n      mstore(0x20, 0x06)\n      dup1\n      0x00\n      mstore\n      keccak256(0x00, 0x40)\n      0x00\n      swap2\n      pop\n      swap1\n      pop\n      dup1\n      sload\n      tag_55\n      swap1\n      tag_44\n      jump\t// in\n    tag_55:\n      dup1\n      0x1f\n      add\n      0x20\n      dup1\n      swap2\n      div\n      mul\n      0x20\n      add\n      mload(0x40)\n      swap1\n      dup2\n      add\n      0x40\n      mstore\n      dup1\n      swap3\n      swap2\n      swap1\n      dup2\n      dup2\n      mstore\n      0x20\n      add\n      dup3\n      dup1\n      sload\n      tag_56\n      swap1\n      tag_44\n      jump\t// in\n    tag_56:\n      dup1\n      iszero\n      tag_57\n      jumpi\n      dup1\n      0x1f\n      lt\n      tag_58\n      jumpi\n      0x0100\n      dup1\n      dup4\n      sload\n      div\n      mul\n      dup4\n      mstore\n      swap2\n      0x20\n      add\n      swap2\n      jump(tag_57)\n    tag_58:\n      dup3\n      add\n      swap2\n      swap1\n      0x00\n      mstore\n      keccak256(0x00, 0x20)\n      swap1\n    tag_59:\n      dup2\n      sload\n      dup2\n      mstore\n      swap1\n      0x01\n      add\n      swap1\n      0x20\n      add\n      dup1\n      dup4\n      gt\n      tag_59\n      jumpi\n      dup3\n      swap1\n      sub\n      0x1f\n      and\n      dup3\n      add\n      swap2\n    tag_57:\n      pop\n      pop\n      pop\n      pop\n      pop\n      dup2\n      jump\t// out\n        /* \"createErc721.sol\":114:134  string public symbol */\n    tag_32:\n      0x01\n      dup1\n      sload\n      tag_60\n      swap1\n      tag_44\n      jump\t// in\n    tag_60:\n      dup1\n      0x1f\n      add\n      0x20\n      dup1\n      swap2\n      div\n      mul\n      0x20\n      add\n      mload(0x40)\n      swap1\n      dup2\n      add\n      0x40\n      mstore\n      dup1\n      swap3\n      swap2\n      swap1\n      dup2\n      dup2\n      mstore\n      0x20\n      add\n      dup3\n      dup1\n      sload\n      tag_61\n      swap1\n      tag_44\n      jump\t// in\n    tag_61:\n      dup1\n      iszero\n      tag_62\n      jumpi\n      dup1\n      0x1f\n      lt\n      tag_63\n      jumpi\n      0x0100\n      dup1\n      dup4\n      sload\n      div\n      mul\n      dup4\n      mstore\n      swap2\n      0x20\n      add\n      swap2\n      jump(tag_62)\n    tag_63:\n      dup3\n      add\n      swap2\n      swap1\n      0x00\n      mstore\n      keccak256(0x00, 0x20)\n      swap1\n    tag_64:\n      dup2\n      sload\n      dup2\n      mstore\n      swap1\n      0x01\n      add\n      swap1\n      0x20\n      add\n      dup1\n      dup4\n      gt\n      tag_64\n      jumpi\n      dup3\n      swap1\n      sub\n      0x1f\n      and\n      dup3\n      add\n      swap2\n    tag_62:\n      pop\n      pop\n      pop\n      pop\n      pop\n      dup2\n      jump\t// out\n        /* \"createErc721.sol\":773:1022  function tokenURI(uint256 tokenId) public view returns (string memory) {... */\n    tag_36:\n        /* \"createErc721.sol\":829:842  string memory */\n      0x60\n        /* \"createErc721.sol\":890:891  0 */\n      0x00\n        /* \"createErc721.sol\":863:892  owners[tokenId] != address(0) */\n      0xffffffffffffffffffffffffffffffffffffffff\n      and\n        /* \"createErc721.sol\":863:869  owners */\n      0x04\n        /* \"createErc721.sol\":863:878  owners[tokenId] */\n      0x00\n        /* \"createErc721.sol\":870:877  tokenId */\n      dup5\n        /* \"createErc721.sol\":863:878  owners[tokenId] */\n      dup2\n      mstore\n      0x20\n      add\n      swap1\n      dup2\n      mstore\n      0x20\n      add\n      0x00\n      keccak256\n      0x00\n      swap1\n      sload\n      swap1\n      0x0100\n      exp\n      swap1\n      div\n      0xffffffffffffffffffffffffffffffffffffffff\n      and\n        /* \"createErc721.sol\":863:892  owners[tokenId] != address(0) */\n      0xffffffffffffffffffffffffffffffffffffffff\n      and\n      sub\n        /* \"createErc721.sol\":855:917  require(owners[tokenId] != address(0), \"Token does not exist\") */\n      tag_66\n      jumpi\n      mload(0x40)\n      0x08c379a000000000000000000000000000000000000000000000000000000000\n      dup2\n      mstore\n      0x04\n      add\n      tag_67\n      swap1\n      tag_68\n      jump\t// in\n    tag_67:\n      mload(0x40)\n      dup1\n      swap2\n      sub\n      swap1\n      revert\n    tag_66:\n        /* \"createErc721.sol\":995:1012  uint2str(tokenId) */\n      tag_69\n        /* \"createErc721.sol\":1004:1011  tokenId */\n      dup3\n        /* \"createErc721.sol\":995:1003  uint2str */\n      tag_70\n        /* \"createErc721.sol\":995:1012  uint2str(tokenId) */\n      jump\t// in\n    tag_69:\n        /* \"createErc721.sol\":942:1013  abi.encodePacked(\"https://www.google.com/search?q=\", uint2str(tokenId)) */\n      add(0x20, mload(0x40))\n      tag_71\n      swap2\n      swap1\n      tag_72\n      jump\t// in\n    tag_71:\n      mload(0x40)\n      0x20\n      dup2\n      dup4\n      sub\n      sub\n      dup2\n      mstore\n      swap1\n      0x40\n      mstore\n        /* \"createErc721.sol\":928:1014  return string(abi.encodePacked(\"https://www.google.com/search?q=\", uint2str(tokenId))) */\n      swap1\n      pop\n        /* \"createErc721.sol\":773:1022  function tokenURI(uint256 tokenId) public view returns (string memory) {... */\n      swap2\n      swap1\n      pop\n      jump\t// out\n        /* \"createErc721.sol\":262:310  mapping(address => uint256[]) public ownedTokens */\n    tag_41:\n      mstore(0x20, 0x05)\n      dup2\n      0x00\n      mstore\n      keccak256(0x00, 0x40)\n      dup2\n      dup2\n      sload\n      dup2\n      lt\n      tag_73\n      jumpi\n      0x00\n      dup1\n      revert\n    tag_73:\n      swap1\n      0x00\n      mstore\n      keccak256(0x00, 0x20)\n      add\n      0x00\n      swap2\n      pop\n      swap2\n      pop\n      pop\n      sload\n      dup2\n      jump\t// out\n        /* \"createErc721.sol\":1063:1574  function uint2str(uint value ) internal pure returns (string memory){... */\n    tag_70:\n        /* \"createErc721.sol\":1117:1130  string memory */\n      0x60\n        /* \"createErc721.sol\":1154:1155  0 */\n      0x00\n        /* \"createErc721.sol\":1145:1150  value */\n      dup3\n        /* \"createErc721.sol\":1145:1155  value == 0 */\n      sub\n        /* \"createErc721.sol\":1142:1193  if(value == 0){... */\n      tag_76\n      jumpi\n        /* \"createErc721.sol\":1171:1181  return \"0\" */\n      mload(0x40)\n      dup1\n      0x40\n      add\n      0x40\n      mstore\n      dup1\n      0x01\n      dup2\n      mstore\n      0x20\n      add\n      0x3000000000000000000000000000000000000000000000000000000000000000\n      dup2\n      mstore\n      pop\n      swap1\n      pop\n      jump(tag_75)\n        /* \"createErc721.sol\":1142:1193  if(value == 0){... */\n    tag_76:\n        /* \"createErc721.sol\":1203:1215  uint cur_val */\n      0x00\n        /* \"createErc721.sol\":1218:1223  value */\n      dup3\n        /* \"createErc721.sol\":1203:1223  uint cur_val = value */\n      swap1\n      pop\n        /* \"createErc721.sol\":1234:1242  uint cnt */\n      0x00\n        /* \"createErc721.sol\":1255:1332  while(cur_val !=0){... */\n    tag_77:\n        /* \"createErc721.sol\":1271:1272  0 */\n      0x00\n        /* \"createErc721.sol\":1261:1268  cur_val */\n      dup3\n        /* \"createErc721.sol\":1261:1272  cur_val !=0 */\n      eq\n        /* \"createErc721.sol\":1255:1332  while(cur_val !=0){... */\n      tag_78\n      jumpi\n        /* \"createErc721.sol\":1288:1293  ++cnt */\n      dup1\n      tag_79\n      swap1\n      tag_54\n      jump\t// in\n    tag_79:\n      swap1\n      pop\n        /* \"createErc721.sol\":1318:1320  10 */\n      0x0a\n        /* \"createErc721.sol\":1309:1320  cur_val/=10 */\n      dup3\n      tag_80\n      swap2\n      swap1\n      tag_81\n      jump\t// in\n    tag_80:\n      swap2\n      pop\n        /* \"createErc721.sol\":1255:1332  while(cur_val !=0){... */\n      jump(tag_77)\n    tag_78:\n        /* \"createErc721.sol\":1342:1361  bytes memory buffer */\n      0x00\n        /* \"createErc721.sol\":1375:1378  cnt */\n      dup2\n        /* \"createErc721.sol\":1365:1380  new bytes(cnt ) */\n      0xffffffffffffffff\n      dup2\n      gt\n      iszero\n      tag_82\n      jumpi\n      tag_83\n      tag_84\n      jump\t// in\n    tag_83:\n    tag_82:\n      mload(0x40)\n      swap1\n      dup1\n      dup3\n      mstore\n      dup1\n      0x1f\n      add\n      not(0x1f)\n      and\n      0x20\n      add\n      dup3\n      add\n      0x40\n      mstore\n      dup1\n      iszero\n      tag_85\n      jumpi\n      dup2\n      0x20\n      add\n      0x01\n      dup3\n      mul\n      dup1\n      calldatasize\n      dup4\n      calldatacopy\n      dup1\n      dup3\n      add\n      swap2\n      pop\n      pop\n      swap1\n      pop\n    tag_85:\n      pop\n        /* \"createErc721.sol\":1342:1380  bytes memory buffer =  new bytes(cnt ) */\n      swap1\n      pop\n        /* \"createErc721.sol\":1391:1534  while(value != 0 ){... */\n    tag_86:\n        /* \"createErc721.sol\":1406:1407  0 */\n      0x00\n        /* \"createErc721.sol\":1397:1402  value */\n      dup6\n        /* \"createErc721.sol\":1397:1407  value != 0 */\n      eq\n        /* \"createErc721.sol\":1391:1534  while(value != 0 ){... */\n      tag_87\n      jumpi\n        /* \"createErc721.sol\":1430:1431  1 */\n      0x01\n        /* \"createErc721.sol\":1424:1431  cnt -=1 */\n      dup3\n      tag_88\n      swap2\n      swap1\n      tag_89\n      jump\t// in\n    tag_88:\n      swap2\n      pop\n        /* \"createErc721.sol\":1492:1494  10 */\n      0x0a\n        /* \"createErc721.sol\":1484:1489  value */\n      dup6\n        /* \"createErc721.sol\":1484:1494  value % 10 */\n      tag_90\n      swap2\n      swap1\n      tag_91\n      jump\t// in\n    tag_90:\n        /* \"createErc721.sol\":1474:1476  48 */\n      0x30\n        /* \"createErc721.sol\":1474:1496  48 + uint(value % 10 ) */\n      tag_92\n      swap2\n      swap1\n      tag_51\n      jump\t// in\n    tag_92:\n        /* \"createErc721.sol\":1461:1498  bytes1(uint8(48 + uint(value % 10 ))) */\n      0xf8\n      shl\n        /* \"createErc721.sol\":1447:1453  buffer */\n      dup2\n        /* \"createErc721.sol\":1454:1457  cnt */\n      dup4\n        /* \"createErc721.sol\":1447:1458  buffer[cnt] */\n      dup2\n      mload\n      dup2\n      lt\n      tag_93\n      jumpi\n      tag_94\n      tag_95\n      jump\t// in\n    tag_94:\n    tag_93:\n      0x20\n      add\n      add\n        /* \"createErc721.sol\":1447:1498  buffer[cnt] = bytes1(uint8(48 + uint(value % 10 ))) */\n      swap1\n      not(0xffffffffffffffffffffffffffffffffffffffffffffffffffffffffffffff)\n      and\n      swap1\n      dup2\n      0x00\n      byte\n      swap1\n      mstore8\n      pop\n        /* \"createErc721.sol\":1520:1522  10 */\n      0x0a\n        /* \"createErc721.sol\":1513:1522  value/=10 */\n      dup6\n      tag_96\n      swap2\n      swap1\n      tag_81\n      jump\t// in\n    tag_96:\n      swap5\n      pop\n        /* \"createErc721.sol\":1391:1534  while(value != 0 ){... */\n      jump(tag_86)\n    tag_87:\n        /* \"createErc721.sol\":1559:1565  buffer */\n      dup1\n        /* \"createErc721.sol\":1544:1566  return string (buffer) */\n      swap4\n      pop\n      pop\n      pop\n      pop\n        /* \"createErc721.sol\":1063:1574  function uint2str(uint value ) internal pure returns (string memory){... */\n    tag_75:\n      swap2\n      swap1\n      pop\n      jump\t// out\n        /* \"#utility.yul\":88:205   */\n    tag_98:\n        /* \"#utility.yul\":197:198   */\n      0x00\n        /* \"#utility.yul\":194:195   */\n      dup1\n        /* \"#utility.yul\":187:199   */\n      revert\n        /* \"#utility.yul\":334:411   */\n    tag_100:\n        /* \"#utility.yul\":371:378   */\n      0x00\n        /* \"#utility.yul\":400:405   */\n      dup2\n        /* \"#utility.yul\":389:405   */\n      swap1\n      pop\n        /* \"#utility.yul\":334:411   */\n      swap2\n      swap1\n      pop\n      jump\t// out\n        /* \"#utility.yul\":417:539   */\n    tag_101:\n        /* \"#utility.yul\":490:514   */\n      tag_129\n        /* \"#utility.yul\":508:513   */\n      dup2\n        /* \"#utility.yul\":490:514   */\n      tag_100\n      jump\t// in\n    tag_129:\n        /* \"#utility.yul\":483:488   */\n      dup2\n        /* \"#utility.yul\":480:515   */\n      eq\n        /* \"#utility.yul\":470:533   */\n      tag_130\n      jumpi\n        /* \"#utility.yul\":529:530   */\n      0x00\n        /* \"#utility.yul\":526:527   */\n      dup1\n        /* \"#utility.yul\":519:531   */\n      revert\n        /* \"#utility.yul\":470:533   */\n    tag_130:\n        /* \"#utility.yul\":417:539   */\n      pop\n      jump\t// out\n        /* \"#utility.yul\":545:684   */\n    tag_102:\n        /* \"#utility.yul\":591:596   */\n      0x00\n        /* \"#utility.yul\":629:635   */\n      dup2\n        /* \"#utility.yul\":616:636   */\n      calldataload\n        /* \"#utility.yul\":607:636   */\n      swap1\n      pop\n        /* \"#utility.yul\":645:678   */\n      tag_132\n        /* \"#utility.yul\":672:677   */\n      dup2\n        /* \"#utility.yul\":645:678   */\n      tag_101\n      jump\t// in\n    tag_132:\n        /* \"#utility.yul\":545:684   */\n      swap3\n      swap2\n      pop\n      pop\n      jump\t// out\n        /* \"#utility.yul\":690:1019   */\n    tag_13:\n        /* \"#utility.yul\":749:755   */\n      0x00\n        /* \"#utility.yul\":798:800   */\n      0x20\n        /* \"#utility.yul\":786:795   */\n      dup3\n        /* \"#utility.yul\":777:784   */\n      dup5\n        /* \"#utility.yul\":773:796   */\n      sub\n        /* \"#utility.yul\":769:801   */\n      slt\n        /* \"#utility.yul\":766:885   */\n      iszero\n      tag_134\n      jumpi\n        /* \"#utility.yul\":804:883   */\n      tag_135\n      tag_98\n      jump\t// in\n    tag_135:\n        /* \"#utility.yul\":766:885   */\n    tag_134:\n        /* \"#utility.yul\":924:925   */\n      0x00\n        /* \"#utility.yul\":949:1002   */\n      tag_136\n        /* \"#utility.yul\":994:1001   */\n      dup5\n        /* \"#utility.yul\":985:991   */\n      dup3\n        /* \"#utility.yul\":974:983   */\n      dup6\n        /* \"#utility.yul\":970:992   */\n      add\n        /* \"#utility.yul\":949:1002   */\n      tag_102\n      jump\t// in\n    tag_136:\n        /* \"#utility.yul\":939:1002   */\n      swap2\n      pop\n        /* \"#utility.yul\":895:1012   */\n      pop\n        /* \"#utility.yul\":690:1019   */\n      swap3\n      swap2\n      pop\n      pop\n      jump\t// out\n        /* \"#utility.yul\":1025:1151   */\n    tag_103:\n        /* \"#utility.yul\":1062:1069   */\n      0x00\n        /* \"#utility.yul\":1102:1144   */\n      0xffffffffffffffffffffffffffffffffffffffff\n        /* \"#utility.yul\":1095:1100   */\n      dup3\n        /* \"#utility.yul\":1091:1145   */\n      and\n        /* \"#utility.yul\":1080:1145   */\n      swap1\n      pop\n        /* \"#utility.yul\":1025:1151   */\n      swap2\n      swap1\n      pop\n      jump\t// out\n        /* \"#utility.yul\":1157:1253   */\n    tag_104:\n        /* \"#utility.yul\":1194:1201   */\n      0x00\n        /* \"#utility.yul\":1223:1247   */\n      tag_139\n        /* \"#utility.yul\":1241:1246   */\n      dup3\n        /* \"#utility.yul\":1223:1247   */\n      tag_103\n      jump\t// in\n    tag_139:\n        /* \"#utility.yul\":1212:1247   */\n      swap1\n      pop\n        /* \"#utility.yul\":1157:1253   */\n      swap2\n      swap1\n      pop\n      jump\t// out\n        /* \"#utility.yul\":1259:1377   */\n    tag_105:\n        /* \"#utility.yul\":1346:1370   */\n      tag_141\n        /* \"#utility.yul\":1364:1369   */\n      dup2\n        /* \"#utility.yul\":1346:1370   */\n      tag_104\n      jump\t// in\n    tag_141:\n        /* \"#utility.yul\":1341:1344   */\n      dup3\n        /* \"#utility.yul\":1334:1371   */\n      mstore\n        /* \"#utility.yul\":1259:1377   */\n      pop\n      pop\n      jump\t// out\n        /* \"#utility.yul\":1383:1605   */\n    tag_16:\n        /* \"#utility.yul\":1476:1480   */\n      0x00\n        /* \"#utility.yul\":1514:1516   */\n      0x20\n        /* \"#utility.yul\":1503:1512   */\n      dup3\n        /* \"#utility.yul\":1499:1517   */\n      add\n        /* \"#utility.yul\":1491:1517   */\n      swap1\n      pop\n        /* \"#utility.yul\":1527:1598   */\n      tag_143\n        /* \"#utility.yul\":1595:1596   */\n      0x00\n        /* \"#utility.yul\":1584:1593   */\n      dup4\n        /* \"#utility.yul\":1580:1597   */\n      add\n        /* \"#utility.yul\":1571:1577   */\n      dup5\n        /* \"#utility.yul\":1527:1598   */\n      tag_105\n      jump\t// in\n    tag_143:\n        /* \"#utility.yul\":1383:1605   */\n      swap3\n      swap2\n      pop\n      pop\n      jump\t// out\n        /* \"#utility.yul\":1611:1710   */\n    tag_106:\n        /* \"#utility.yul\":1663:1669   */\n      0x00\n        /* \"#utility.yul\":1697:1702   */\n      dup2\n        /* \"#utility.yul\":1691:1703   */\n      mload\n        /* \"#utility.yul\":1681:1703   */\n      swap1\n      pop\n        /* \"#utility.yul\":1611:1710   */\n      swap2\n      swap1\n      pop\n      jump\t// out\n        /* \"#utility.yul\":1716:1885   */\n    tag_107:\n        /* \"#utility.yul\":1800:1811   */\n      0x00\n        /* \"#utility.yul\":1834:1840   */\n      dup3\n        /* \"#utility.yul\":1829:1832   */\n      dup3\n        /* \"#utility.yul\":1822:1841   */\n      mstore\n        /* \"#utility.yul\":1874:1878   */\n      0x20\n        /* \"#utility.yul\":1869:1872   */\n      dup3\n        /* \"#utility.yul\":1865:1879   */\n      add\n        /* \"#utility.yul\":1850:1879   */\n      swap1\n      pop\n        /* \"#utility.yul\":1716:1885   */\n      swap3\n      swap2\n      pop\n      pop\n      jump\t// out\n        /* \"#utility.yul\":1891:2137   */\n    tag_108:\n        /* \"#utility.yul\":1972:1973   */\n      0x00\n        /* \"#utility.yul\":1982:2095   */\n    tag_147:\n        /* \"#utility.yul\":1996:2002   */\n      dup4\n        /* \"#utility.yul\":1993:1994   */\n      dup2\n        /* \"#utility.yul\":1990:2003   */\n      lt\n        /* \"#utility.yul\":1982:2095   */\n      iszero\n      tag_149\n      jumpi\n        /* \"#utility.yul\":2081:2082   */\n      dup1\n        /* \"#utility.yul\":2076:2079   */\n      dup3\n        /* \"#utility.yul\":2072:2083   */\n      add\n        /* \"#utility.yul\":2066:2084   */\n      mload\n        /* \"#utility.yul\":2062:2063   */\n      dup2\n        /* \"#utility.yul\":2057:2060   */\n      dup5\n        /* \"#utility.yul\":2053:2064   */\n      add\n        /* \"#utility.yul\":2046:2085   */\n      mstore\n        /* \"#utility.yul\":2018:2020   */\n      0x20\n        /* \"#utility.yul\":2015:2016   */\n      dup2\n        /* \"#utility.yul\":2011:2021   */\n      add\n        /* \"#utility.yul\":2006:2021   */\n      swap1\n      pop\n        /* \"#utility.yul\":1982:2095   */\n      jump(tag_147)\n    tag_149:\n        /* \"#utility.yul\":2129:2130   */\n      0x00\n        /* \"#utility.yul\":2120:2126   */\n      dup5\n        /* \"#utility.yul\":2115:2118   */\n      dup5\n        /* \"#utility.yul\":2111:2127   */\n      add\n        /* \"#utility.yul\":2104:2131   */\n      mstore\n        /* \"#utility.yul\":1953:2137   */\n      pop\n        /* \"#utility.yul\":1891:2137   */\n      pop\n      pop\n      pop\n      jump\t// out\n        /* \"#utility.yul\":2143:2245   */\n    tag_109:\n        /* \"#utility.yul\":2184:2190   */\n      0x00\n        /* \"#utility.yul\":2235:2237   */\n      0x1f\n        /* \"#utility.yul\":2231:2238   */\n      not\n        /* \"#utility.yul\":2226:2228   */\n      0x1f\n        /* \"#utility.yul\":2219:2224   */\n      dup4\n        /* \"#utility.yul\":2215:2229   */\n      add\n        /* \"#utility.yul\":2211:2239   */\n      and\n        /* \"#utility.yul\":2201:2239   */\n      swap1\n      pop\n        /* \"#utility.yul\":2143:2245   */\n      swap2\n      swap1\n      pop\n      jump\t// out\n        /* \"#utility.yul\":2251:2628   */\n    tag_110:\n        /* \"#utility.yul\":2339:2342   */\n      0x00\n        /* \"#utility.yul\":2367:2406   */\n      tag_152\n        /* \"#utility.yul\":2400:2405   */\n      dup3\n        /* \"#utility.yul\":2367:2406   */\n      tag_106\n      jump\t// in\n    tag_152:\n        /* \"#utility.yul\":2422:2493   */\n      tag_153\n        /* \"#utility.yul\":2486:2492   */\n      dup2\n        /* \"#utility.yul\":2481:2484   */\n      dup6\n        /* \"#utility.yul\":2422:2493   */\n      tag_107\n      jump\t// in\n    tag_153:\n        /* \"#utility.yul\":2415:2493   */\n      swap4\n      pop\n        /* \"#utility.yul\":2502:2567   */\n      tag_154\n        /* \"#utility.yul\":2560:2566   */\n      dup2\n        /* \"#utility.yul\":2555:2558   */\n      dup6\n        /* \"#utility.yul\":2548:2552   */\n      0x20\n        /* \"#utility.yul\":2541:2546   */\n      dup7\n        /* \"#utility.yul\":2537:2553   */\n      add\n        /* \"#utility.yul\":2502:2567   */\n      tag_108\n      jump\t// in\n    tag_154:\n        /* \"#utility.yul\":2592:2621   */\n      tag_155\n        /* \"#utility.yul\":2614:2620   */\n      dup2\n        /* \"#utility.yul\":2592:2621   */\n      tag_109\n      jump\t// in\n    tag_155:\n        /* \"#utility.yul\":2587:2590   */\n      dup5\n        /* \"#utility.yul\":2583:2622   */\n      add\n        /* \"#utility.yul\":2576:2622   */\n      swap2\n      pop\n        /* \"#utility.yul\":2343:2628   */\n      pop\n        /* \"#utility.yul\":2251:2628   */\n      swap3\n      swap2\n      pop\n      pop\n      jump\t// out\n        /* \"#utility.yul\":2634:2947   */\n    tag_20:\n        /* \"#utility.yul\":2747:2751   */\n      0x00\n        /* \"#utility.yul\":2785:2787   */\n      0x20\n        /* \"#utility.yul\":2774:2783   */\n      dup3\n        /* \"#utility.yul\":2770:2788   */\n      add\n        /* \"#utility.yul\":2762:2788   */\n      swap1\n      pop\n        /* \"#utility.yul\":2834:2843   */\n      dup2\n        /* \"#utility.yul\":2828:2832   */\n      dup2\n        /* \"#utility.yul\":2824:2844   */\n      sub\n        /* \"#utility.yul\":2820:2821   */\n      0x00\n        /* \"#utility.yul\":2809:2818   */\n      dup4\n        /* \"#utility.yul\":2805:2822   */\n      add\n        /* \"#utility.yul\":2798:2845   */\n      mstore\n        /* \"#utility.yul\":2862:2940   */\n      tag_157\n        /* \"#utility.yul\":2935:2939   */\n      dup2\n        /* \"#utility.yul\":2926:2932   */\n      dup5\n        /* \"#utility.yul\":2862:2940   */\n      tag_110\n      jump\t// in\n    tag_157:\n        /* \"#utility.yul\":2854:2940   */\n      swap1\n      pop\n        /* \"#utility.yul\":2634:2947   */\n      swap3\n      swap2\n      pop\n      pop\n      jump\t// out\n        /* \"#utility.yul\":2953:3075   */\n    tag_111:\n        /* \"#utility.yul\":3026:3050   */\n      tag_159\n        /* \"#utility.yul\":3044:3049   */\n      dup2\n        /* \"#utility.yul\":3026:3050   */\n      tag_104\n      jump\t// in\n    tag_159:\n        /* \"#utility.yul\":3019:3024   */\n      dup2\n        /* \"#utility.yul\":3016:3051   */\n      eq\n        /* \"#utility.yul\":3006:3069   */\n      tag_160\n      jumpi\n        /* \"#utility.yul\":3065:3066   */\n      0x00\n        /* \"#utility.yul\":3062:3063   */\n      dup1\n        /* \"#utility.yul\":3055:3067   */\n      revert\n        /* \"#utility.yul\":3006:3069   */\n    tag_160:\n        /* \"#utility.yul\":2953:3075   */\n      pop\n      jump\t// out\n        /* \"#utility.yul\":3081:3220   */\n    tag_112:\n        /* \"#utility.yul\":3127:3132   */\n      0x00\n        /* \"#utility.yul\":3165:3171   */\n      dup2\n        /* \"#utility.yul\":3152:3172   */\n      calldataload\n        /* \"#utility.yul\":3143:3172   */\n      swap1\n      pop\n        /* \"#utility.yul\":3181:3214   */\n      tag_162\n        /* \"#utility.yul\":3208:3213   */\n      dup2\n        /* \"#utility.yul\":3181:3214   */\n      tag_111\n      jump\t// in\n    tag_162:\n        /* \"#utility.yul\":3081:3220   */\n      swap3\n      swap2\n      pop\n      pop\n      jump\t// out\n        /* \"#utility.yul\":3226:3555   */\n    tag_23:\n        /* \"#utility.yul\":3285:3291   */\n      0x00\n        /* \"#utility.yul\":3334:3336   */\n      0x20\n        /* \"#utility.yul\":3322:3331   */\n      dup3\n        /* \"#utility.yul\":3313:3320   */\n      dup5\n        /* \"#utility.yul\":3309:3332   */\n      sub\n        /* \"#utility.yul\":3305:3337   */\n      slt\n        /* \"#utility.yul\":3302:3421   */\n      iszero\n      tag_164\n      jumpi\n        /* \"#utility.yul\":3340:3419   */\n      tag_165\n      tag_98\n      jump\t// in\n    tag_165:\n        /* \"#utility.yul\":3302:3421   */\n    tag_164:\n        /* \"#utility.yul\":3460:3461   */\n      0x00\n        /* \"#utility.yul\":3485:3538   */\n      tag_166\n        /* \"#utility.yul\":3530:3537   */\n      dup5\n        /* \"#utility.yul\":3521:3527   */\n      dup3\n        /* \"#utility.yul\":3510:3519   */\n      dup6\n        /* \"#utility.yul\":3506:3528   */\n      add\n        /* \"#utility.yul\":3485:3538   */\n      tag_112\n      jump\t// in\n    tag_166:\n        /* \"#utility.yul\":3475:3538   */\n      swap2\n      pop\n        /* \"#utility.yul\":3431:3548   */\n      pop\n        /* \"#utility.yul\":3226:3555   */\n      swap3\n      swap2\n      pop\n      pop\n      jump\t// out\n        /* \"#utility.yul\":3561:3679   */\n    tag_113:\n        /* \"#utility.yul\":3648:3672   */\n      tag_168\n        /* \"#utility.yul\":3666:3671   */\n      dup2\n        /* \"#utility.yul\":3648:3672   */\n      tag_100\n      jump\t// in\n    tag_168:\n        /* \"#utility.yul\":3643:3646   */\n      dup3\n        /* \"#utility.yul\":3636:3673   */\n      mstore\n        /* \"#utility.yul\":3561:3679   */\n      pop\n      pop\n      jump\t// out\n        /* \"#utility.yul\":3685:3907   */\n    tag_26:\n        /* \"#utility.yul\":3778:3782   */\n      0x00\n        /* \"#utility.yul\":3816:3818   */\n      0x20\n        /* \"#utility.yul\":3805:3814   */\n      dup3\n        /* \"#utility.yul\":3801:3819   */\n      add\n        /* \"#utility.yul\":3793:3819   */\n      swap1\n      pop\n        /* \"#utility.yul\":3829:3900   */\n      tag_170\n        /* \"#utility.yul\":3897:3898   */\n      0x00\n        /* \"#utility.yul\":3886:3895   */\n      dup4\n        /* \"#utility.yul\":3882:3899   */\n      add\n        /* \"#utility.yul\":3873:3879   */\n      dup5\n        /* \"#utility.yul\":3829:3900   */\n      tag_113\n      jump\t// in\n    tag_170:\n        /* \"#utility.yul\":3685:3907   */\n      swap3\n      swap2\n      pop\n      pop\n      jump\t// out\n        /* \"#utility.yul\":3913:4387   */\n    tag_40:\n        /* \"#utility.yul\":3981:3987   */\n      0x00\n        /* \"#utility.yul\":3989:3995   */\n      dup1\n        /* \"#utility.yul\":4038:4040   */\n      0x40\n        /* \"#utility.yul\":4026:4035   */\n      dup4\n        /* \"#utility.yul\":4017:4024   */\n      dup6\n        /* \"#utility.yul\":4013:4036   */\n      sub\n        /* \"#utility.yul\":4009:4041   */\n      slt\n        /* \"#utility.yul\":4006:4125   */\n      iszero\n      tag_172\n      jumpi\n        /* \"#utility.yul\":4044:4123   */\n      tag_173\n      tag_98\n      jump\t// in\n    tag_173:\n        /* \"#utility.yul\":4006:4125   */\n    tag_172:\n        /* \"#utility.yul\":4164:4165   */\n      0x00\n        /* \"#utility.yul\":4189:4242   */\n      tag_174\n        /* \"#utility.yul\":4234:4241   */\n      dup6\n        /* \"#utility.yul\":4225:4231   */\n      dup3\n        /* \"#utility.yul\":4214:4223   */\n      dup7\n        /* \"#utility.yul\":4210:4232   */\n      add\n        /* \"#utility.yul\":4189:4242   */\n      tag_112\n      jump\t// in\n    tag_174:\n        /* \"#utility.yul\":4179:4242   */\n      swap3\n      pop\n        /* \"#utility.yul\":4135:4252   */\n      pop\n        /* \"#utility.yul\":4291:4293   */\n      0x20\n        /* \"#utility.yul\":4317:4370   */\n      tag_175\n        /* \"#utility.yul\":4362:4369   */\n      dup6\n        /* \"#utility.yul\":4353:4359   */\n      dup3\n        /* \"#utility.yul\":4342:4351   */\n      dup7\n        /* \"#utility.yul\":4338:4360   */\n      add\n        /* \"#utility.yul\":4317:4370   */\n      tag_102\n      jump\t// in\n    tag_175:\n        /* \"#utility.yul\":4307:4370   */\n      swap2\n      pop\n        /* \"#utility.yul\":4262:4380   */\n      pop\n        /* \"#utility.yul\":3913:4387   */\n      swap3\n      pop\n      swap3\n      swap1\n      pop\n      jump\t// out\n        /* \"#utility.yul\":4393:4573   */\n    tag_114:\n        /* \"#utility.yul\":4441:4518   */\n      0x4e487b7100000000000000000000000000000000000000000000000000000000\n        /* \"#utility.yul\":4438:4439   */\n      0x00\n        /* \"#utility.yul\":4431:4519   */\n      mstore\n        /* \"#utility.yul\":4538:4542   */\n      0x22\n        /* \"#utility.yul\":4535:4536   */\n      0x04\n        /* \"#utility.yul\":4528:4543   */\n      mstore\n        /* \"#utility.yul\":4562:4566   */\n      0x24\n        /* \"#utility.yul\":4559:4560   */\n      0x00\n        /* \"#utility.yul\":4552:4567   */\n      revert\n        /* \"#utility.yul\":4579:4899   */\n    tag_44:\n        /* \"#utility.yul\":4623:4629   */\n      0x00\n        /* \"#utility.yul\":4660:4661   */\n      0x02\n        /* \"#utility.yul\":4654:4658   */\n      dup3\n        /* \"#utility.yul\":4650:4662   */\n      div\n        /* \"#utility.yul\":4640:4662   */\n      swap1\n      pop\n        /* \"#utility.yul\":4707:4708   */\n      0x01\n        /* \"#utility.yul\":4701:4705   */\n      dup3\n        /* \"#utility.yul\":4697:4709   */\n      and\n        /* \"#utility.yul\":4728:4746   */\n      dup1\n        /* \"#utility.yul\":4718:4799   */\n      tag_178\n      jumpi\n        /* \"#utility.yul\":4784:4788   */\n      0x7f\n        /* \"#utility.yul\":4776:4782   */\n      dup3\n        /* \"#utility.yul\":4772:4789   */\n      and\n        /* \"#utility.yul\":4762:4789   */\n      swap2\n      pop\n        /* \"#utility.yul\":4718:4799   */\n    tag_178:\n        /* \"#utility.yul\":4846:4848   */\n      0x20\n        /* \"#utility.yul\":4838:4844   */\n      dup3\n        /* \"#utility.yul\":4835:4849   */\n      lt\n        /* \"#utility.yul\":4815:4833   */\n      dup2\n        /* \"#utility.yul\":4812:4850   */\n      sub\n        /* \"#utility.yul\":4809:4893   */\n      tag_179\n      jumpi\n        /* \"#utility.yul\":4865:4883   */\n      tag_180\n      tag_114\n      jump\t// in\n    tag_180:\n        /* \"#utility.yul\":4809:4893   */\n    tag_179:\n        /* \"#utility.yul\":4630:4899   */\n      pop\n        /* \"#utility.yul\":4579:4899   */\n      swap2\n      swap1\n      pop\n      jump\t// out\n        /* \"#utility.yul\":4905:5085   */\n    tag_115:\n        /* \"#utility.yul\":4953:5030   */\n      0x4e487b7100000000000000000000000000000000000000000000000000000000\n        /* \"#utility.yul\":4950:4951   */\n      0x00\n        /* \"#utility.yul\":4943:5031   */\n      mstore\n        /* \"#utility.yul\":5050:5054   */\n      0x11\n        /* \"#utility.yul\":5047:5048   */\n      0x04\n        /* \"#utility.yul\":5040:5055   */\n      mstore\n        /* \"#utility.yul\":5074:5078   */\n      0x24\n        /* \"#utility.yul\":5071:5072   */\n      0x00\n        /* \"#utility.yul\":5064:5079   */\n      revert\n        /* \"#utility.yul\":5091:5282   */\n    tag_51:\n        /* \"#utility.yul\":5131:5134   */\n      0x00\n        /* \"#utility.yul\":5150:5170   */\n      tag_183\n        /* \"#utility.yul\":5168:5169   */\n      dup3\n        /* \"#utility.yul\":5150:5170   */\n      tag_100\n      jump\t// in\n    tag_183:\n        /* \"#utility.yul\":5145:5170   */\n      swap2\n      pop\n        /* \"#utility.yul\":5184:5204   */\n      tag_184\n        /* \"#utility.yul\":5202:5203   */\n      dup4\n        /* \"#utility.yul\":5184:5204   */\n      tag_100\n      jump\t// in\n    tag_184:\n        /* \"#utility.yul\":5179:5204   */\n      swap3\n      pop\n        /* \"#utility.yul\":5227:5228   */\n      dup3\n        /* \"#utility.yul\":5224:5225   */\n      dup3\n        /* \"#utility.yul\":5220:5229   */\n      add\n        /* \"#utility.yul\":5213:5229   */\n      swap1\n      pop\n        /* \"#utility.yul\":5248:5251   */\n      dup1\n        /* \"#utility.yul\":5245:5246   */\n      dup3\n        /* \"#utility.yul\":5242:5252   */\n      gt\n        /* \"#utility.yul\":5239:5275   */\n      iszero\n      tag_185\n      jumpi\n        /* \"#utility.yul\":5255:5273   */\n      tag_186\n      tag_115\n      jump\t// in\n    tag_186:\n        /* \"#utility.yul\":5239:5275   */\n    tag_185:\n        /* \"#utility.yul\":5091:5282   */\n      swap3\n      swap2\n      pop\n      pop\n      jump\t// out\n        /* \"#utility.yul\":5288:5521   */\n    tag_54:\n        /* \"#utility.yul\":5327:5330   */\n      0x00\n        /* \"#utility.yul\":5350:5374   */\n      tag_188\n        /* \"#utility.yul\":5368:5373   */\n      dup3\n        /* \"#utility.yul\":5350:5374   */\n      tag_100\n      jump\t// in\n    tag_188:\n        /* \"#utility.yul\":5341:5374   */\n      swap2\n      pop\n        /* \"#utility.yul\":5396:5462   */\n      0xffffffffffffffffffffffffffffffffffffffffffffffffffffffffffffffff\n        /* \"#utility.yul\":5389:5394   */\n      dup3\n        /* \"#utility.yul\":5386:5463   */\n      sub\n        /* \"#utility.yul\":5383:5486   */\n      tag_189\n      jumpi\n        /* \"#utility.yul\":5466:5484   */\n      tag_190\n      tag_115\n      jump\t// in\n    tag_190:\n        /* \"#utility.yul\":5383:5486   */\n    tag_189:\n        /* \"#utility.yul\":5513:5514   */\n      0x01\n        /* \"#utility.yul\":5506:5511   */\n      dup3\n        /* \"#utility.yul\":5502:5515   */\n      add\n        /* \"#utility.yul\":5495:5515   */\n      swap1\n      pop\n        /* \"#utility.yul\":5288:5521   */\n      swap2\n      swap1\n      pop\n      jump\t// out\n        /* \"#utility.yul\":5527:5697   */\n    tag_116:\n        /* \"#utility.yul\":5667:5689   */\n      0x546f6b656e20646f6573206e6f74206578697374000000000000000000000000\n        /* \"#utility.yul\":5663:5664   */\n      0x00\n        /* \"#utility.yul\":5655:5661   */\n      dup3\n        /* \"#utility.yul\":5651:5665   */\n      add\n        /* \"#utility.yul\":5644:5690   */\n      mstore\n        /* \"#utility.yul\":5527:5697   */\n      pop\n      jump\t// out\n        /* \"#utility.yul\":5703:6069   */\n    tag_117:\n        /* \"#utility.yul\":5845:5848   */\n      0x00\n        /* \"#utility.yul\":5866:5933   */\n      tag_193\n        /* \"#utility.yul\":5930:5932   */\n      0x14\n        /* \"#utility.yul\":5925:5928   */\n      dup4\n        /* \"#utility.yul\":5866:5933   */\n      tag_107\n      jump\t// in\n    tag_193:\n        /* \"#utility.yul\":5859:5933   */\n      swap2\n      pop\n        /* \"#utility.yul\":5942:6035   */\n      tag_194\n        /* \"#utility.yul\":6031:6034   */\n      dup3\n        /* \"#utility.yul\":5942:6035   */\n      tag_116\n      jump\t// in\n    tag_194:\n        /* \"#utility.yul\":6060:6062   */\n      0x20\n        /* \"#utility.yul\":6055:6058   */\n      dup3\n        /* \"#utility.yul\":6051:6063   */\n      add\n        /* \"#utility.yul\":6044:6063   */\n      swap1\n      pop\n        /* \"#utility.yul\":5703:6069   */\n      swap2\n      swap1\n      pop\n      jump\t// out\n        /* \"#utility.yul\":6075:6494   */\n    tag_68:\n        /* \"#utility.yul\":6241:6245   */\n      0x00\n        /* \"#utility.yul\":6279:6281   */\n      0x20\n        /* \"#utility.yul\":6268:6277   */\n      dup3\n        /* \"#utility.yul\":6264:6282   */\n      add\n        /* \"#utility.yul\":6256:6282   */\n      swap1\n      pop\n        /* \"#utility.yul\":6328:6337   */\n      dup2\n        /* \"#utility.yul\":6322:6326   */\n      dup2\n        /* \"#utility.yul\":6318:6338   */\n      sub\n        /* \"#utility.yul\":6314:6315   */\n      0x00\n        /* \"#utility.yul\":6303:6312   */\n      dup4\n        /* \"#utility.yul\":6299:6316   */\n      add\n        /* \"#utility.yul\":6292:6339   */\n      mstore\n        /* \"#utility.yul\":6356:6487   */\n      tag_196\n        /* \"#utility.yul\":6482:6486   */\n      dup2\n        /* \"#utility.yul\":6356:6487   */\n      tag_117\n      jump\t// in\n    tag_196:\n        /* \"#utility.yul\":6348:6487   */\n      swap1\n      pop\n        /* \"#utility.yul\":6075:6494   */\n      swap2\n      swap1\n      pop\n      jump\t// out\n        /* \"#utility.yul\":6500:6648   */\n    tag_118:\n        /* \"#utility.yul\":6602:6613   */\n      0x00\n        /* \"#utility.yul\":6639:6642   */\n      dup2\n        /* \"#utility.yul\":6624:6642   */\n      swap1\n      pop\n        /* \"#utility.yul\":6500:6648   */\n      swap3\n      swap2\n      pop\n      pop\n      jump\t// out\n        /* \"#utility.yul\":6654:6840   */\n    tag_119:\n        /* \"#utility.yul\":6794:6828   */\n      0x68747470733a2f2f7777772e676f6f676c652e636f6d2f7365617263683f713d\n        /* \"#utility.yul\":6790:6791   */\n      0x00\n        /* \"#utility.yul\":6782:6788   */\n      dup3\n        /* \"#utility.yul\":6778:6792   */\n      add\n        /* \"#utility.yul\":6771:6829   */\n      mstore\n        /* \"#utility.yul\":6654:6840   */\n      pop\n      jump\t// out\n        /* \"#utility.yul\":6850:7268   */\n    tag_120:\n        /* \"#utility.yul\":7010:7013   */\n      0x00\n        /* \"#utility.yul\":7035:7120   */\n      tag_200\n        /* \"#utility.yul\":7117:7119   */\n      0x20\n        /* \"#utility.yul\":7112:7115   */\n      dup4\n        /* \"#utility.yul\":7035:7120   */\n      tag_118\n      jump\t// in\n    tag_200:\n        /* \"#utility.yul\":7028:7120   */\n      swap2\n      pop\n        /* \"#utility.yul\":7133:7226   */\n      tag_201\n        /* \"#utility.yul\":7222:7225   */\n      dup3\n        /* \"#utility.yul\":7133:7226   */\n      tag_119\n      jump\t// in\n    tag_201:\n        /* \"#utility.yul\":7255:7257   */\n      0x20\n        /* \"#utility.yul\":7250:7253   */\n      dup3\n        /* \"#utility.yul\":7246:7258   */\n      add\n        /* \"#utility.yul\":7239:7258   */\n      swap1\n      pop\n        /* \"#utility.yul\":6850:7268   */\n      swap2\n      swap1\n      pop\n      jump\t// out\n        /* \"#utility.yul\":7278:7688   */\n    tag_121:\n        /* \"#utility.yul\":7384:7387   */\n      0x00\n        /* \"#utility.yul\":7416:7455   */\n      tag_203\n        /* \"#utility.yul\":7449:7454   */\n      dup3\n        /* \"#utility.yul\":7416:7455   */\n      tag_106\n      jump\t// in\n    tag_203:\n        /* \"#utility.yul\":7475:7564   */\n      tag_204\n        /* \"#utility.yul\":7557:7563   */\n      dup2\n        /* \"#utility.yul\":7552:7555   */\n      dup6\n        /* \"#utility.yul\":7475:7564   */\n      tag_118\n      jump\t// in\n    tag_204:\n        /* \"#utility.yul\":7468:7564   */\n      swap4\n      pop\n        /* \"#utility.yul\":7577:7642   */\n      tag_205\n        /* \"#utility.yul\":7635:7641   */\n      dup2\n        /* \"#utility.yul\":7630:7633   */\n      dup6\n        /* \"#utility.yul\":7623:7627   */\n      0x20\n        /* \"#utility.yul\":7616:7621   */\n      dup7\n        /* \"#utility.yul\":7612:7628   */\n      add\n        /* \"#utility.yul\":7577:7642   */\n      tag_108\n      jump\t// in\n    tag_205:\n        /* \"#utility.yul\":7671:7677   */\n      dup1\n        /* \"#utility.yul\":7666:7669   */\n      dup5\n        /* \"#utility.yul\":7662:7678   */\n      add\n        /* \"#utility.yul\":7655:7678   */\n      swap2\n      pop\n        /* \"#utility.yul\":7388:7688   */\n      pop\n        /* \"#utility.yul\":7278:7688   */\n      swap3\n      swap2\n      pop\n      pop\n      jump\t// out\n        /* \"#utility.yul\":7698:8255   */\n    tag_72:\n        /* \"#utility.yul\":7931:7934   */\n      0x00\n        /* \"#utility.yul\":7957:8105   */\n      tag_207\n        /* \"#utility.yul\":8101:8104   */\n      dup3\n        /* \"#utility.yul\":7957:8105   */\n      tag_120\n      jump\t// in\n    tag_207:\n        /* \"#utility.yul\":7950:8105   */\n      swap2\n      pop\n        /* \"#utility.yul\":8126:8221   */\n      tag_208\n        /* \"#utility.yul\":8217:8220   */\n      dup3\n        /* \"#utility.yul\":8208:8214   */\n      dup5\n        /* \"#utility.yul\":8126:8221   */\n      tag_121\n      jump\t// in\n    tag_208:\n        /* \"#utility.yul\":8119:8221   */\n      swap2\n      pop\n        /* \"#utility.yul\":8242:8245   */\n      dup2\n        /* \"#utility.yul\":8235:8245   */\n      swap1\n      pop\n        /* \"#utility.yul\":7698:8255   */\n      swap3\n      swap2\n      pop\n      pop\n      jump\t// out\n        /* \"#utility.yul\":8265:8461   */\n    tag_122:\n        /* \"#utility.yul\":8317:8394   */\n      0x4e487b7100000000000000000000000000000000000000000000000000000000\n        /* \"#utility.yul\":8314:8315   */\n      0x00\n        /* \"#utility.yul\":8307:8395   */\n      mstore\n        /* \"#utility.yul\":8418:8422   */\n      0x12\n        /* \"#utility.yul\":8415:8416   */\n      0x04\n        /* \"#utility.yul\":8408:8423   */\n      mstore\n        /* \"#utility.yul\":8446:8450   */\n      0x24\n        /* \"#utility.yul\":8443:8444   */\n      0x00\n        /* \"#utility.yul\":8436:8451   */\n      revert\n        /* \"#utility.yul\":8471:8676   */\n    tag_81:\n        /* \"#utility.yul\":8511:8512   */\n      0x00\n        /* \"#utility.yul\":8532:8552   */\n      tag_211\n        /* \"#utility.yul\":8550:8551   */\n      dup3\n        /* \"#utility.yul\":8532:8552   */\n      tag_100\n      jump\t// in\n    tag_211:\n        /* \"#utility.yul\":8527:8552   */\n      swap2\n      pop\n        /* \"#utility.yul\":8570:8590   */\n      tag_212\n        /* \"#utility.yul\":8588:8589   */\n      dup4\n        /* \"#utility.yul\":8570:8590   */\n      tag_100\n      jump\t// in\n    tag_212:\n        /* \"#utility.yul\":8565:8590   */\n      swap3\n      pop\n        /* \"#utility.yul\":8613:8614   */\n      dup3\n        /* \"#utility.yul\":8603:8638   */\n      tag_213\n      jumpi\n        /* \"#utility.yul\":8618:8636   */\n      tag_214\n      tag_122\n      jump\t// in\n    tag_214:\n        /* \"#utility.yul\":8603:8638   */\n    tag_213:\n        /* \"#utility.yul\":8664:8665   */\n      dup3\n        /* \"#utility.yul\":8661:8662   */\n      dup3\n        /* \"#utility.yul\":8657:8666   */\n      div\n        /* \"#utility.yul\":8652:8666   */\n      swap1\n      pop\n        /* \"#utility.yul\":8471:8676   */\n      swap3\n      swap2\n      pop\n      pop\n      jump\t// out\n        /* \"#utility.yul\":8686:8882   */\n    tag_84:\n        /* \"#utility.yul\":8738:8815   */\n      0x4e487b7100000000000000000000000000000000000000000000000000000000\n        /* \"#utility.yul\":8735:8736   */\n      0x00\n        /* \"#utility.yul\":8728:8816   */\n      mstore\n        /* \"#utility.yul\":8839:8843   */\n      0x41\n        /* \"#utility.yul\":8836:8837   */\n      0x04\n        /* \"#utility.yul\":8829:8844   */\n      mstore\n        /* \"#utility.yul\":8867:8871   */\n      0x24\n        /* \"#utility.yul\":8864:8865   */\n      0x00\n        /* \"#utility.yul\":8857:8872   */\n      revert\n        /* \"#utility.yul\":8892:9106   */\n    tag_89:\n        /* \"#utility.yul\":8932:8936   */\n      0x00\n        /* \"#utility.yul\":8956:8976   */\n      tag_217\n        /* \"#utility.yul\":8974:8975   */\n      dup3\n        /* \"#utility.yul\":8956:8976   */\n      tag_100\n      jump\t// in\n    tag_217:\n        /* \"#utility.yul\":8951:8976   */\n      swap2\n      pop\n        /* \"#utility.yul\":8994:9014   */\n      tag_218\n        /* \"#utility.yul\":9012:9013   */\n      dup4\n        /* \"#utility.yul\":8994:9014   */\n      tag_100\n      jump\t// in\n    tag_218:\n        /* \"#utility.yul\":8989:9014   */\n      swap3\n      pop\n        /* \"#utility.yul\":9042:9043   */\n      dup3\n        /* \"#utility.yul\":9039:9040   */\n      dup3\n        /* \"#utility.yul\":9035:9044   */\n      sub\n        /* \"#utility.yul\":9027:9044   */\n      swap1\n      pop\n        /* \"#utility.yul\":9070:9071   */\n      dup2\n        /* \"#utility.yul\":9064:9068   */\n      dup2\n        /* \"#utility.yul\":9061:9072   */\n      gt\n        /* \"#utility.yul\":9058:9095   */\n      iszero\n      tag_219\n      jumpi\n        /* \"#utility.yul\":9075:9093   */\n      tag_220\n      tag_115\n      jump\t// in\n    tag_220:\n        /* \"#utility.yul\":9058:9095   */\n    tag_219:\n        /* \"#utility.yul\":8892:9106   */\n      swap3\n      swap2\n      pop\n      pop\n      jump\t// out\n        /* \"#utility.yul\":9116:9312   */\n    tag_91:\n        /* \"#utility.yul\":9148:9149   */\n      0x00\n        /* \"#utility.yul\":9169:9189   */\n      tag_222\n        /* \"#utility.yul\":9187:9188   */\n      dup3\n        /* \"#utility.yul\":9169:9189   */\n      tag_100\n      jump\t// in\n    tag_222:\n        /* \"#utility.yul\":9164:9189   */\n      swap2\n      pop\n        /* \"#utility.yul\":9207:9227   */\n      tag_223\n        /* \"#utility.yul\":9225:9226   */\n      dup4\n        /* \"#utility.yul\":9207:9227   */\n      tag_100\n      jump\t// in\n    tag_223:\n        /* \"#utility.yul\":9202:9227   */\n      swap3\n      pop\n        /* \"#utility.yul\":9250:9251   */\n      dup3\n        /* \"#utility.yul\":9240:9275   */\n      tag_224\n      jumpi\n        /* \"#utility.yul\":9255:9273   */\n      tag_225\n      tag_122\n      jump\t// in\n    tag_225:\n        /* \"#utility.yul\":9240:9275   */\n    tag_224:\n        /* \"#utility.yul\":9300:9301   */\n      dup3\n        /* \"#utility.yul\":9297:9298   */\n      dup3\n        /* \"#utility.yul\":9293:9302   */\n      mod\n        /* \"#utility.yul\":9288:9302   */\n      swap1\n      pop\n        /* \"#utility.yul\":9116:9312   */\n      swap3\n      swap2\n      pop\n      pop\n      jump\t// out\n        /* \"#utility.yul\":9322:9518   */\n    tag_95:\n        /* \"#utility.yul\":9374:9451   */\n      0x4e487b7100000000000000000000000000000000000000000000000000000000\n        /* \"#utility.yul\":9371:9372   */\n      0x00\n        /* \"#utility.yul\":9364:9452   */\n      mstore\n        /* \"#utility.yul\":9475:9479   */\n      0x32\n        /* \"#utility.yul\":9472:9473   */\n      0x04\n        /* \"#utility.yul\":9465:9480   */\n      mstore\n        /* \"#utility.yul\":9503:9507   */\n      0x24\n        /* \"#utility.yul\":9500:9501   */\n      0x00\n        /* \"#utility.yul\":9493:9508   */\n      revert\n\n    auxdata: 0xa26469706673582212200c1154c3cb459f6f19ab324521014d616a497615572ef13244633dd5d8a537c764736f6c63430008120033\n}\n",
				"bytecode": {
					"linkReferences": {},
					"object": "60806040523480156200001157600080fd5b5060405162001264380380620012648339818101604052810190620000379190620001fe565b8160009081620000489190620004ce565b5080600190816200005a9190620004ce565b5060006002819055505050620005b5565b6000604051905090565b600080fd5b600080fd5b600080fd5b600080fd5b6000601f19601f8301169050919050565b7f4e487b7100000000000000000000000000000000000000000000000000000000600052604160045260246000fd5b620000d48262000089565b810181811067ffffffffffffffff82111715620000f657620000f56200009a565b5b80604052505050565b60006200010b6200006b565b9050620001198282620000c9565b919050565b600067ffffffffffffffff8211156200013c576200013b6200009a565b5b620001478262000089565b9050602081019050919050565b60005b838110156200017457808201518184015260208101905062000157565b60008484015250505050565b60006200019762000191846200011e565b620000ff565b905082815260208101848484011115620001b657620001b562000084565b5b620001c384828562000154565b509392505050565b600082601f830112620001e357620001e26200007f565b5b8151620001f584826020860162000180565b91505092915050565b6000806040838503121562000218576200021762000075565b5b600083015167ffffffffffffffff8111156200023957620002386200007a565b5b6200024785828601620001cb565b925050602083015167ffffffffffffffff8111156200026b576200026a6200007a565b5b6200027985828601620001cb565b9150509250929050565b600081519050919050565b7f4e487b7100000000000000000000000000000000000000000000000000000000600052602260045260246000fd5b60006002820490506001821680620002d657607f821691505b602082108103620002ec57620002eb6200028e565b5b50919050565b60008190508160005260206000209050919050565b60006020601f8301049050919050565b600082821b905092915050565b600060088302620003567fffffffffffffffffffffffffffffffffffffffffffffffffffffffffffffffff8262000317565b62000362868362000317565b95508019841693508086168417925050509392505050565b6000819050919050565b6000819050919050565b6000620003af620003a9620003a3846200037a565b62000384565b6200037a565b9050919050565b6000819050919050565b620003cb836200038e565b620003e3620003da82620003b6565b84845462000324565b825550505050565b600090565b620003fa620003eb565b62000407818484620003c0565b505050565b5b818110156200042f5762000423600082620003f0565b6001810190506200040d565b5050565b601f8211156200047e576200044881620002f2565b620004538462000307565b8101602085101562000463578190505b6200047b620004728562000307565b8301826200040c565b50505b505050565b600082821c905092915050565b6000620004a36000198460080262000483565b1980831691505092915050565b6000620004be838362000490565b9150826002028217905092915050565b620004d98262000283565b67ffffffffffffffff811115620004f557620004f46200009a565b5b620005018254620002bd565b6200050e82828562000433565b600060209050601f83116001811462000546576000841562000531578287015190505b6200053d8582620004b0565b865550620005ad565b601f1984166200055686620002f2565b60005b82811015620005805784890151825560018201915060208501945060208101905062000559565b86831015620005a057848901516200059c601f89168262000490565b8355505b6001600288020188555050505b505050505050565b610c9f80620005c56000396000f3fe608060405234801561001057600080fd5b506004361061007d5760003560e01c80636c8b703f1161005b5780636c8b703f1461010057806395d89b4114610130578063c87b56dd1461014e578063e149f0361461017e5761007d565b8063025e7c271461008257806306fdde03146100b257806309aa7b67146100d0575b600080fd5b61009c60048036038101906100979190610727565b6101ae565b6040516100a99190610795565b60405180910390f35b6100ba6101e1565b6040516100c79190610840565b60405180910390f35b6100ea60048036038101906100e5919061088e565b61026f565b6040516100f791906108ca565b60405180910390f35b61011a60048036038101906101159190610727565b61035c565b6040516101279190610840565b60405180910390f35b6101386103fc565b6040516101459190610840565b60405180910390f35b61016860048036038101906101639190610727565b61048a565b6040516101759190610840565b60405180910390f35b610198600480360381019061019391906108e5565b61055d565b6040516101a591906108ca565b60405180910390f35b60046020528060005260406000206000915054906101000a900473ffffffffffffffffffffffffffffffffffffffff1681565b600080546101ee90610954565b80601f016020809104026020016040519081016040528092919081815260200182805461021a90610954565b80156102675780601f1061023c57610100808354040283529160200191610267565b820191906000526020600020905b81548152906001019060200180831161024a57829003601f168201915b505050505081565b600080600160025461028191906109b4565b9050826004600083815260200190815260200160002060006101000a81548173ffffffffffffffffffffffffffffffffffffffff021916908373ffffffffffffffffffffffffffffffffffffffff160217905550600560008473ffffffffffffffffffffffffffffffffffffffff1673ffffffffffffffffffffffffffffffffffffffff1681526020019081526020016000208190806001815401808255809150506001900390600052602060002001600090919091909150556002600081548092919061034e906109e8565b919050555080915050919050565b6006602052806000526040600020600091509050805461037b90610954565b80601f01602080910402602001604051908101604052809291908181526020018280546103a790610954565b80156103f45780601f106103c9576101008083540402835291602001916103f4565b820191906000526020600020905b8154815290600101906020018083116103d757829003601f168201915b505050505081565b6001805461040990610954565b80601f016020809104026020016040519081016040528092919081815260200182805461043590610954565b80156104825780601f1061045757610100808354040283529160200191610482565b820191906000526020600020905b81548152906001019060200180831161046557829003601f168201915b505050505081565b6060600073ffffffffffffffffffffffffffffffffffffffff166004600084815260200190815260200160002060009054906101000a900473ffffffffffffffffffffffffffffffffffffffff1673ffffffffffffffffffffffffffffffffffffffff160361052e576040517f08c379a000000000000000000000000000000000000000000000000000000000815260040161052590610a7c565b60405180910390fd5b6105378261058e565b6040516020016105479190610b24565b6040516020818303038152906040529050919050565b6005602052816000526040600020818154811061057957600080fd5b90600052602060002001600091509150505481565b6060600082036105d5576040518060400160405280600181526020017f300000000000000000000000000000000000000000000000000000000000000081525090506106e7565b600082905060005b6000821461060557806105ef906109e8565b9050600a826105fe9190610b75565b91506105dd565b60008167ffffffffffffffff81111561062157610620610ba6565b5b6040519080825280601f01601f1916602001820160405280156106535781602001600182028036833780820191505090505b5090505b600085146106e05760018261066c9190610bd5565b9150600a8561067b9190610c09565b603061068791906109b4565b60f81b81838151811061069d5761069c610c3a565b5b60200101907effffffffffffffffffffffffffffffffffffffffffffffffffffffffffffff1916908160001a905350600a856106d99190610b75565b9450610657565b8093505050505b919050565b600080fd5b6000819050919050565b610704816106f1565b811461070f57600080fd5b50565b600081359050610721816106fb565b92915050565b60006020828403121561073d5761073c6106ec565b5b600061074b84828501610712565b91505092915050565b600073ffffffffffffffffffffffffffffffffffffffff82169050919050565b600061077f82610754565b9050919050565b61078f81610774565b82525050565b60006020820190506107aa6000830184610786565b92915050565b600081519050919050565b600082825260208201905092915050565b60005b838110156107ea5780820151818401526020810190506107cf565b60008484015250505050565b6000601f19601f8301169050919050565b6000610812826107b0565b61081c81856107bb565b935061082c8185602086016107cc565b610835816107f6565b840191505092915050565b6000602082019050818103600083015261085a8184610807565b905092915050565b61086b81610774565b811461087657600080fd5b50565b60008135905061088881610862565b92915050565b6000602082840312156108a4576108a36106ec565b5b60006108b284828501610879565b91505092915050565b6108c4816106f1565b82525050565b60006020820190506108df60008301846108bb565b92915050565b600080604083850312156108fc576108fb6106ec565b5b600061090a85828601610879565b925050602061091b85828601610712565b9150509250929050565b7f4e487b7100000000000000000000000000000000000000000000000000000000600052602260045260246000fd5b6000600282049050600182168061096c57607f821691505b60208210810361097f5761097e610925565b5b50919050565b7f4e487b7100000000000000000000000000000000000000000000000000000000600052601160045260246000fd5b60006109bf826106f1565b91506109ca836106f1565b92508282019050808211156109e2576109e1610985565b5b92915050565b60006109f3826106f1565b91507fffffffffffffffffffffffffffffffffffffffffffffffffffffffffffffffff8203610a2557610a24610985565b5b600182019050919050565b7f546f6b656e20646f6573206e6f74206578697374000000000000000000000000600082015250565b6000610a666014836107bb565b9150610a7182610a30565b602082019050919050565b60006020820190508181036000830152610a9581610a59565b9050919050565b600081905092915050565b7f68747470733a2f2f7777772e676f6f676c652e636f6d2f7365617263683f713d600082015250565b6000610add602083610a9c565b9150610ae882610aa7565b602082019050919050565b6000610afe826107b0565b610b088185610a9c565b9350610b188185602086016107cc565b80840191505092915050565b6000610b2f82610ad0565b9150610b3b8284610af3565b915081905092915050565b7f4e487b7100000000000000000000000000000000000000000000000000000000600052601260045260246000fd5b6000610b80826106f1565b9150610b8b836106f1565b925082610b9b57610b9a610b46565b5b828204905092915050565b7f4e487b7100000000000000000000000000000000000000000000000000000000600052604160045260246000fd5b6000610be0826106f1565b9150610beb836106f1565b9250828203905081811115610c0357610c02610985565b5b92915050565b6000610c14826106f1565b9150610c1f836106f1565b925082610c2f57610c2e610b46565b5b828206905092915050565b7f4e487b7100000000000000000000000000000000000000000000000000000000600052603260045260246000fdfea26469706673582212200c1154c3cb459f6f19ab324521014d616a497615572ef13244633dd5d8a537c764736f6c63430008120033",
					"opcodes": "PUSH1 0x80 PUSH1 0x40 MSTORE CALLVALUE DUP1 ISZERO PUSH3 0x11 JUMPI PUSH1 0x0 DUP1 REVERT JUMPDEST POP PUSH1 0x40 MLOAD PUSH3 0x1264 CODESIZE SUB DUP1 PUSH3 0x1264 DUP4 CODECOPY DUP2 DUP2 ADD PUSH1 0x40 MSTORE DUP2 ADD SWAP1 PUSH3 0x37 SWAP2 SWAP1 PUSH3 0x1FE JUMP JUMPDEST DUP2 PUSH1 0x0 SWAP1 DUP2 PUSH3 0x48 SWAP2 SWAP1 PUSH3 0x4CE JUMP JUMPDEST POP DUP1 PUSH1 0x1 SWAP1 DUP2 PUSH3 0x5A SWAP2 SWAP1 PUSH3 0x4CE JUMP JUMPDEST POP PUSH1 0x0 PUSH1 0x2 DUP2 SWAP1 SSTORE POP POP POP PUSH3 0x5B5 JUMP JUMPDEST PUSH1 0x0 PUSH1 0x40 MLOAD SWAP1 POP SWAP1 JUMP JUMPDEST PUSH1 0x0 DUP1 REVERT JUMPDEST PUSH1 0x0 DUP1 REVERT JUMPDEST PUSH1 0x0 DUP1 REVERT JUMPDEST PUSH1 0x0 DUP1 REVERT JUMPDEST PUSH1 0x0 PUSH1 0x1F NOT PUSH1 0x1F DUP4 ADD AND SWAP1 POP SWAP2 SWAP1 POP JUMP JUMPDEST PUSH32 0x4E487B7100000000000000000000000000000000000000000000000000000000 PUSH1 0x0 MSTORE PUSH1 0x41 PUSH1 0x4 MSTORE PUSH1 0x24 PUSH1 0x0 REVERT JUMPDEST PUSH3 0xD4 DUP3 PUSH3 0x89 JUMP JUMPDEST DUP2 ADD DUP2 DUP2 LT PUSH8 0xFFFFFFFFFFFFFFFF DUP3 GT OR ISZERO PUSH3 0xF6 JUMPI PUSH3 0xF5 PUSH3 0x9A JUMP JUMPDEST JUMPDEST DUP1 PUSH1 0x40 MSTORE POP POP POP JUMP JUMPDEST PUSH1 0x0 PUSH3 0x10B PUSH3 0x6B JUMP JUMPDEST SWAP1 POP PUSH3 0x119 DUP3 DUP3 PUSH3 0xC9 JUMP JUMPDEST SWAP2 SWAP1 POP JUMP JUMPDEST PUSH1 0x0 PUSH8 0xFFFFFFFFFFFFFFFF DUP3 GT ISZERO PUSH3 0x13C JUMPI PUSH3 0x13B PUSH3 0x9A JUMP JUMPDEST JUMPDEST PUSH3 0x147 DUP3 PUSH3 0x89 JUMP JUMPDEST SWAP1 POP PUSH1 0x20 DUP2 ADD SWAP1 POP SWAP2 SWAP1 POP JUMP JUMPDEST PUSH1 0x0 JUMPDEST DUP4 DUP2 LT ISZERO PUSH3 0x174 JUMPI DUP1 DUP3 ADD MLOAD DUP2 DUP5 ADD MSTORE PUSH1 0x20 DUP2 ADD SWAP1 POP PUSH3 0x157 JUMP JUMPDEST PUSH1 0x0 DUP5 DUP5 ADD MSTORE POP POP POP POP JUMP JUMPDEST PUSH1 0x0 PUSH3 0x197 PUSH3 0x191 DUP5 PUSH3 0x11E JUMP JUMPDEST PUSH3 0xFF JUMP JUMPDEST SWAP1 POP DUP3 DUP2 MSTORE PUSH1 0x20 DUP2 ADD DUP5 DUP5 DUP5 ADD GT ISZERO PUSH3 0x1B6 JUMPI PUSH3 0x1B5 PUSH3 0x84 JUMP JUMPDEST JUMPDEST PUSH3 0x1C3 DUP5 DUP3 DUP6 PUSH3 0x154 JUMP JUMPDEST POP SWAP4 SWAP3 POP POP POP JUMP JUMPDEST PUSH1 0x0 DUP3 PUSH1 0x1F DUP4 ADD SLT PUSH3 0x1E3 JUMPI PUSH3 0x1E2 PUSH3 0x7F JUMP JUMPDEST JUMPDEST DUP2 MLOAD PUSH3 0x1F5 DUP5 DUP3 PUSH1 0x20 DUP7 ADD PUSH3 0x180 JUMP JUMPDEST SWAP2 POP POP SWAP3 SWAP2 POP POP JUMP JUMPDEST PUSH1 0x0 DUP1 PUSH1 0x40 DUP4 DUP6 SUB SLT ISZERO PUSH3 0x218 JUMPI PUSH3 0x217 PUSH3 0x75 JUMP JUMPDEST JUMPDEST PUSH1 0x0 DUP4 ADD MLOAD PUSH8 0xFFFFFFFFFFFFFFFF DUP2 GT ISZERO PUSH3 0x239 JUMPI PUSH3 0x238 PUSH3 0x7A JUMP JUMPDEST JUMPDEST PUSH3 0x247 DUP6 DUP3 DUP7 ADD PUSH3 0x1CB JUMP JUMPDEST SWAP3 POP POP PUSH1 0x20 DUP4 ADD MLOAD PUSH8 0xFFFFFFFFFFFFFFFF DUP2 GT ISZERO PUSH3 0x26B JUMPI PUSH3 0x26A PUSH3 0x7A JUMP JUMPDEST JUMPDEST PUSH3 0x279 DUP6 DUP3 DUP7 ADD PUSH3 0x1CB JUMP JUMPDEST SWAP2 POP POP SWAP3 POP SWAP3 SWAP1 POP JUMP JUMPDEST PUSH1 0x0 DUP2 MLOAD SWAP1 POP SWAP2 SWAP1 POP JUMP JUMPDEST PUSH32 0x4E487B7100000000000000000000000000000000000000000000000000000000 PUSH1 0x0 MSTORE PUSH1 0x22 PUSH1 0x4 MSTORE PUSH1 0x24 PUSH1 0x0 REVERT JUMPDEST PUSH1 0x0 PUSH1 0x2 DUP3 DIV SWAP1 POP PUSH1 0x1 DUP3 AND DUP1 PUSH3 0x2D6 JUMPI PUSH1 0x7F DUP3 AND SWAP2 POP JUMPDEST PUSH1 0x20 DUP3 LT DUP2 SUB PUSH3 0x2EC JUMPI PUSH3 0x2EB PUSH3 0x28E JUMP JUMPDEST JUMPDEST POP SWAP2 SWAP1 POP JUMP JUMPDEST PUSH1 0x0 DUP2 SWAP1 POP DUP2 PUSH1 0x0 MSTORE PUSH1 0x20 PUSH1 0x0 KECCAK256 SWAP1 POP SWAP2 SWAP1 POP JUMP JUMPDEST PUSH1 0x0 PUSH1 0x20 PUSH1 0x1F DUP4 ADD DIV SWAP1 POP SWAP2 SWAP1 POP JUMP JUMPDEST PUSH1 0x0 DUP3 DUP3 SHL SWAP1 POP SWAP3 SWAP2 POP POP JUMP JUMPDEST PUSH1 0x0 PUSH1 0x8 DUP4 MUL PUSH3 0x356 PUSH32 0xFFFFFFFFFFFFFFFFFFFFFFFFFFFFFFFFFFFFFFFFFFFFFFFFFFFFFFFFFFFFFFFF DUP3 PUSH3 0x317 JUMP JUMPDEST PUSH3 0x362 DUP7 DUP4 PUSH3 0x317 JUMP JUMPDEST SWAP6 POP DUP1 NOT DUP5 AND SWAP4 POP DUP1 DUP7 AND DUP5 OR SWAP3 POP POP POP SWAP4 SWAP3 POP POP POP JUMP JUMPDEST PUSH1 0x0 DUP2 SWAP1 POP SWAP2 SWAP1 POP JUMP JUMPDEST PUSH1 0x0 DUP2 SWAP1 POP SWAP2 SWAP1 POP JUMP JUMPDEST PUSH1 0x0 PUSH3 0x3AF PUSH3 0x3A9 PUSH3 0x3A3 DUP5 PUSH3 0x37A JUMP JUMPDEST PUSH3 0x384 JUMP JUMPDEST PUSH3 0x37A JUMP JUMPDEST SWAP1 POP SWAP2 SWAP1 POP JUMP JUMPDEST PUSH1 0x0 DUP2 SWAP1 POP SWAP2 SWAP1 POP JUMP JUMPDEST PUSH3 0x3CB DUP4 PUSH3 0x38E JUMP JUMPDEST PUSH3 0x3E3 PUSH3 0x3DA DUP3 PUSH3 0x3B6 JUMP JUMPDEST DUP5 DUP5 SLOAD PUSH3 0x324 JUMP JUMPDEST DUP3 SSTORE POP POP POP POP JUMP JUMPDEST PUSH1 0x0 SWAP1 JUMP JUMPDEST PUSH3 0x3FA PUSH3 0x3EB JUMP JUMPDEST PUSH3 0x407 DUP2 DUP5 DUP5 PUSH3 0x3C0 JUMP JUMPDEST POP POP POP JUMP JUMPDEST JUMPDEST DUP2 DUP2 LT ISZERO PUSH3 0x42F JUMPI PUSH3 0x423 PUSH1 0x0 DUP3 PUSH3 0x3F0 JUMP JUMPDEST PUSH1 0x1 DUP2 ADD SWAP1 POP PUSH3 0x40D JUMP JUMPDEST POP POP JUMP JUMPDEST PUSH1 0x1F DUP3 GT ISZERO PUSH3 0x47E JUMPI PUSH3 0x448 DUP2 PUSH3 0x2F2 JUMP JUMPDEST PUSH3 0x453 DUP5 PUSH3 0x307 JUMP JUMPDEST DUP2 ADD PUSH1 0x20 DUP6 LT ISZERO PUSH3 0x463 JUMPI DUP2 SWAP1 POP JUMPDEST PUSH3 0x47B PUSH3 0x472 DUP6 PUSH3 0x307 JUMP JUMPDEST DUP4 ADD DUP3 PUSH3 0x40C JUMP JUMPDEST POP POP JUMPDEST POP POP POP JUMP JUMPDEST PUSH1 0x0 DUP3 DUP3 SHR SWAP1 POP SWAP3 SWAP2 POP POP JUMP JUMPDEST PUSH1 0x0 PUSH3 0x4A3 PUSH1 0x0 NOT DUP5 PUSH1 0x8 MUL PUSH3 0x483 JUMP JUMPDEST NOT DUP1 DUP4 AND SWAP2 POP POP SWAP3 SWAP2 POP POP JUMP JUMPDEST PUSH1 0x0 PUSH3 0x4BE DUP4 DUP4 PUSH3 0x490 JUMP JUMPDEST SWAP2 POP DUP3 PUSH1 0x2 MUL DUP3 OR SWAP1 POP SWAP3 SWAP2 POP POP JUMP JUMPDEST PUSH3 0x4D9 DUP3 PUSH3 0x283 JUMP JUMPDEST PUSH8 0xFFFFFFFFFFFFFFFF DUP2 GT ISZERO PUSH3 0x4F5 JUMPI PUSH3 0x4F4 PUSH3 0x9A JUMP JUMPDEST JUMPDEST PUSH3 0x501 DUP3 SLOAD PUSH3 0x2BD JUMP JUMPDEST PUSH3 0x50E DUP3 DUP3 DUP6 PUSH3 0x433 JUMP JUMPDEST PUSH1 0x0 PUSH1 0x20 SWAP1 POP PUSH1 0x1F DUP4 GT PUSH1 0x1 DUP2 EQ PUSH3 0x546 JUMPI PUSH1 0x0 DUP5 ISZERO PUSH3 0x531 JUMPI DUP3 DUP8 ADD MLOAD SWAP1 POP JUMPDEST PUSH3 0x53D DUP6 DUP3 PUSH3 0x4B0 JUMP JUMPDEST DUP7 SSTORE POP PUSH3 0x5AD JUMP JUMPDEST PUSH1 0x1F NOT DUP5 AND PUSH3 0x556 DUP7 PUSH3 0x2F2 JUMP JUMPDEST PUSH1 0x0 JUMPDEST DUP3 DUP2 LT ISZERO PUSH3 0x580 JUMPI DUP5 DUP10 ADD MLOAD DUP3 SSTORE PUSH1 0x1 DUP3 ADD SWAP2 POP PUSH1 0x20 DUP6 ADD SWAP5 POP PUSH1 0x20 DUP2 ADD SWAP1 POP PUSH3 0x559 JUMP JUMPDEST DUP7 DUP4 LT ISZERO PUSH3 0x5A0 JUMPI DUP5 DUP10 ADD MLOAD PUSH3 0x59C PUSH1 0x1F DUP10 AND DUP3 PUSH3 0x490 JUMP JUMPDEST DUP4 SSTORE POP JUMPDEST PUSH1 0x1 PUSH1 0x2 DUP9 MUL ADD DUP9 SSTORE POP POP POP JUMPDEST POP POP POP POP POP POP JUMP JUMPDEST PUSH2 0xC9F DUP1 PUSH3 0x5C5 PUSH1 0x0 CODECOPY PUSH1 0x0 RETURN INVALID PUSH1 0x80 PUSH1 0x40 MSTORE CALLVALUE DUP1 ISZERO PUSH2 0x10 JUMPI PUSH1 0x0 DUP1 REVERT JUMPDEST POP PUSH1 0x4 CALLDATASIZE LT PUSH2 0x7D JUMPI PUSH1 0x0 CALLDATALOAD PUSH1 0xE0 SHR DUP1 PUSH4 0x6C8B703F GT PUSH2 0x5B JUMPI DUP1 PUSH4 0x6C8B703F EQ PUSH2 0x100 JUMPI DUP1 PUSH4 0x95D89B41 EQ PUSH2 0x130 JUMPI DUP1 PUSH4 0xC87B56DD EQ PUSH2 0x14E JUMPI DUP1 PUSH4 0xE149F036 EQ PUSH2 0x17E JUMPI PUSH2 0x7D JUMP JUMPDEST DUP1 PUSH4 0x25E7C27 EQ PUSH2 0x82 JUMPI DUP1 PUSH4 0x6FDDE03 EQ PUSH2 0xB2 JUMPI DUP1 PUSH4 0x9AA7B67 EQ PUSH2 0xD0 JUMPI JUMPDEST PUSH1 0x0 DUP1 REVERT JUMPDEST PUSH2 0x9C PUSH1 0x4 DUP1 CALLDATASIZE SUB DUP2 ADD SWAP1 PUSH2 0x97 SWAP2 SWAP1 PUSH2 0x727 JUMP JUMPDEST PUSH2 0x1AE JUMP JUMPDEST PUSH1 0x40 MLOAD PUSH2 0xA9 SWAP2 SWAP1 PUSH2 0x795 JUMP JUMPDEST PUSH1 0x40 MLOAD DUP1 SWAP2 SUB SWAP1 RETURN JUMPDEST PUSH2 0xBA PUSH2 0x1E1 JUMP JUMPDEST PUSH1 0x40 MLOAD PUSH2 0xC7 SWAP2 SWAP1 PUSH2 0x840 JUMP JUMPDEST PUSH1 0x40 MLOAD DUP1 SWAP2 SUB SWAP1 RETURN JUMPDEST PUSH2 0xEA PUSH1 0x4 DUP1 CALLDATASIZE SUB DUP2 ADD SWAP1 PUSH2 0xE5 SWAP2 SWAP1 PUSH2 0x88E JUMP JUMPDEST PUSH2 0x26F JUMP JUMPDEST PUSH1 0x40 MLOAD PUSH2 0xF7 SWAP2 SWAP1 PUSH2 0x8CA JUMP JUMPDEST PUSH1 0x40 MLOAD DUP1 SWAP2 SUB SWAP1 RETURN JUMPDEST PUSH2 0x11A PUSH1 0x4 DUP1 CALLDATASIZE SUB DUP2 ADD SWAP1 PUSH2 0x115 SWAP2 SWAP1 PUSH2 0x727 JUMP JUMPDEST PUSH2 0x35C JUMP JUMPDEST PUSH1 0x40 MLOAD PUSH2 0x127 SWAP2 SWAP1 PUSH2 0x840 JUMP JUMPDEST PUSH1 0x40 MLOAD DUP1 SWAP2 SUB SWAP1 RETURN JUMPDEST PUSH2 0x138 PUSH2 0x3FC JUMP JUMPDEST PUSH1 0x40 MLOAD PUSH2 0x145 SWAP2 SWAP1 PUSH2 0x840 JUMP JUMPDEST PUSH1 0x40 MLOAD DUP1 SWAP2 SUB SWAP1 RETURN JUMPDEST PUSH2 0x168 PUSH1 0x4 DUP1 CALLDATASIZE SUB DUP2 ADD SWAP1 PUSH2 0x163 SWAP2 SWAP1 PUSH2 0x727 JUMP JUMPDEST PUSH2 0x48A JUMP JUMPDEST PUSH1 0x40 MLOAD PUSH2 0x175 SWAP2 SWAP1 PUSH2 0x840 JUMP JUMPDEST PUSH1 0x40 MLOAD DUP1 SWAP2 SUB SWAP1 RETURN JUMPDEST PUSH2 0x198 PUSH1 0x4 DUP1 CALLDATASIZE SUB DUP2 ADD SWAP1 PUSH2 0x193 SWAP2 SWAP1 PUSH2 0x8E5 JUMP JUMPDEST PUSH2 0x55D JUMP JUMPDEST PUSH1 0x40 MLOAD PUSH2 0x1A5 SWAP2 SWAP1 PUSH2 0x8CA JUMP JUMPDEST PUSH1 0x40 MLOAD DUP1 SWAP2 SUB SWAP1 RETURN JUMPDEST PUSH1 0x4 PUSH1 0x20 MSTORE DUP1 PUSH1 0x0 MSTORE PUSH1 0x40 PUSH1 0x0 KECCAK256 PUSH1 0x0 SWAP2 POP SLOAD SWAP1 PUSH2 0x100 EXP SWAP1 DIV PUSH20 0xFFFFFFFFFFFFFFFFFFFFFFFFFFFFFFFFFFFFFFFF AND DUP2 JUMP JUMPDEST PUSH1 0x0 DUP1 SLOAD PUSH2 0x1EE SWAP1 PUSH2 0x954 JUMP JUMPDEST DUP1 PUSH1 0x1F ADD PUSH1 0x20 DUP1 SWAP2 DIV MUL PUSH1 0x20 ADD PUSH1 0x40 MLOAD SWAP1 DUP2 ADD PUSH1 0x40 MSTORE DUP1 SWAP3 SWAP2 SWAP1 DUP2 DUP2 MSTORE PUSH1 0x20 ADD DUP3 DUP1 SLOAD PUSH2 0x21A SWAP1 PUSH2 0x954 JUMP JUMPDEST DUP1 ISZERO PUSH2 0x267 JUMPI DUP1 PUSH1 0x1F LT PUSH2 0x23C JUMPI PUSH2 0x100 DUP1 DUP4 SLOAD DIV MUL DUP4 MSTORE SWAP2 PUSH1 0x20 ADD SWAP2 PUSH2 0x267 JUMP JUMPDEST DUP3 ADD SWAP2 SWAP1 PUSH1 0x0 MSTORE PUSH1 0x20 PUSH1 0x0 KECCAK256 SWAP1 JUMPDEST DUP2 SLOAD DUP2 MSTORE SWAP1 PUSH1 0x1 ADD SWAP1 PUSH1 0x20 ADD DUP1 DUP4 GT PUSH2 0x24A JUMPI DUP3 SWAP1 SUB PUSH1 0x1F AND DUP3 ADD SWAP2 JUMPDEST POP POP POP POP POP DUP2 JUMP JUMPDEST PUSH1 0x0 DUP1 PUSH1 0x1 PUSH1 0x2 SLOAD PUSH2 0x281 SWAP2 SWAP1 PUSH2 0x9B4 JUMP JUMPDEST SWAP1 POP DUP3 PUSH1 0x4 PUSH1 0x0 DUP4 DUP2 MSTORE PUSH1 0x20 ADD SWAP1 DUP2 MSTORE PUSH1 0x20 ADD PUSH1 0x0 KECCAK256 PUSH1 0x0 PUSH2 0x100 EXP DUP2 SLOAD DUP2 PUSH20 0xFFFFFFFFFFFFFFFFFFFFFFFFFFFFFFFFFFFFFFFF MUL NOT AND SWAP1 DUP4 PUSH20 0xFFFFFFFFFFFFFFFFFFFFFFFFFFFFFFFFFFFFFFFF AND MUL OR SWAP1 SSTORE POP PUSH1 0x5 PUSH1 0x0 DUP5 PUSH20 0xFFFFFFFFFFFFFFFFFFFFFFFFFFFFFFFFFFFFFFFF AND PUSH20 0xFFFFFFFFFFFFFFFFFFFFFFFFFFFFFFFFFFFFFFFF AND DUP2 MSTORE PUSH1 0x20 ADD SWAP1 DUP2 MSTORE PUSH1 0x20 ADD PUSH1 0x0 KECCAK256 DUP2 SWAP1 DUP1 PUSH1 0x1 DUP2 SLOAD ADD DUP1 DUP3 SSTORE DUP1 SWAP2 POP POP PUSH1 0x1 SWAP1 SUB SWAP1 PUSH1 0x0 MSTORE PUSH1 0x20 PUSH1 0x0 KECCAK256 ADD PUSH1 0x0 SWAP1 SWAP2 SWAP1 SWAP2 SWAP1 SWAP2 POP SSTORE PUSH1 0x2 PUSH1 0x0 DUP2 SLOAD DUP1 SWAP3 SWAP2 SWAP1 PUSH2 0x34E SWAP1 PUSH2 0x9E8 JUMP JUMPDEST SWAP2 SWAP1 POP SSTORE POP DUP1 SWAP2 POP POP SWAP2 SWAP1 POP JUMP JUMPDEST PUSH1 0x6 PUSH1 0x20 MSTORE DUP1 PUSH1 0x0 MSTORE PUSH1 0x40 PUSH1 0x0 KECCAK256 PUSH1 0x0 SWAP2 POP SWAP1 POP DUP1 SLOAD PUSH2 0x37B SWAP1 PUSH2 0x954 JUMP JUMPDEST DUP1 PUSH1 0x1F ADD PUSH1 0x20 DUP1 SWAP2 DIV MUL PUSH1 0x20 ADD PUSH1 0x40 MLOAD SWAP1 DUP2 ADD PUSH1 0x40 MSTORE DUP1 SWAP3 SWAP2 SWAP1 DUP2 DUP2 MSTORE PUSH1 0x20 ADD DUP3 DUP1 SLOAD PUSH2 0x3A7 SWAP1 PUSH2 0x954 JUMP JUMPDEST DUP1 ISZERO PUSH2 0x3F4 JUMPI DUP1 PUSH1 0x1F LT PUSH2 0x3C9 JUMPI PUSH2 0x100 DUP1 DUP4 SLOAD DIV MUL DUP4 MSTORE SWAP2 PUSH1 0x20 ADD SWAP2 PUSH2 0x3F4 JUMP JUMPDEST DUP3 ADD SWAP2 SWAP1 PUSH1 0x0 MSTORE PUSH1 0x20 PUSH1 0x0 KECCAK256 SWAP1 JUMPDEST DUP2 SLOAD DUP2 MSTORE SWAP1 PUSH1 0x1 ADD SWAP1 PUSH1 0x20 ADD DUP1 DUP4 GT PUSH2 0x3D7 JUMPI DUP3 SWAP1 SUB PUSH1 0x1F AND DUP3 ADD SWAP2 JUMPDEST POP POP POP POP POP DUP2 JUMP JUMPDEST PUSH1 0x1 DUP1 SLOAD PUSH2 0x409 SWAP1 PUSH2 0x954 JUMP JUMPDEST DUP1 PUSH1 0x1F ADD PUSH1 0x20 DUP1 SWAP2 DIV MUL PUSH1 0x20 ADD PUSH1 0x40 MLOAD SWAP1 DUP2 ADD PUSH1 0x40 MSTORE DUP1 SWAP3 SWAP2 SWAP1 DUP2 DUP2 MSTORE PUSH1 0x20 ADD DUP3 DUP1 SLOAD PUSH2 0x435 SWAP1 PUSH2 0x954 JUMP JUMPDEST DUP1 ISZERO PUSH2 0x482 JUMPI DUP1 PUSH1 0x1F LT PUSH2 0x457 JUMPI PUSH2 0x100 DUP1 DUP4 SLOAD DIV MUL DUP4 MSTORE SWAP2 PUSH1 0x20 ADD SWAP2 PUSH2 0x482 JUMP JUMPDEST DUP3 ADD SWAP2 SWAP1 PUSH1 0x0 MSTORE PUSH1 0x20 PUSH1 0x0 KECCAK256 SWAP1 JUMPDEST DUP2 SLOAD DUP2 MSTORE SWAP1 PUSH1 0x1 ADD SWAP1 PUSH1 0x20 ADD DUP1 DUP4 GT PUSH2 0x465 JUMPI DUP3 SWAP1 SUB PUSH1 0x1F AND DUP3 ADD SWAP2 JUMPDEST POP POP POP POP POP DUP2 JUMP JUMPDEST PUSH1 0x60 PUSH1 0x0 PUSH20 0xFFFFFFFFFFFFFFFFFFFFFFFFFFFFFFFFFFFFFFFF AND PUSH1 0x4 PUSH1 0x0 DUP5 DUP2 MSTORE PUSH1 0x20 ADD SWAP1 DUP2 MSTORE PUSH1 0x20 ADD PUSH1 0x0 KECCAK256 PUSH1 0x0 SWAP1 SLOAD SWAP1 PUSH2 0x100 EXP SWAP1 DIV PUSH20 0xFFFFFFFFFFFFFFFFFFFFFFFFFFFFFFFFFFFFFFFF AND PUSH20 0xFFFFFFFFFFFFFFFFFFFFFFFFFFFFFFFFFFFFFFFF AND SUB PUSH2 0x52E JUMPI PUSH1 0x40 MLOAD PUSH32 0x8C379A000000000000000000000000000000000000000000000000000000000 DUP2 MSTORE PUSH1 0x4 ADD PUSH2 0x525 SWAP1 PUSH2 0xA7C JUMP JUMPDEST PUSH1 0x40 MLOAD DUP1 SWAP2 SUB SWAP1 REVERT JUMPDEST PUSH2 0x537 DUP3 PUSH2 0x58E JUMP JUMPDEST PUSH1 0x40 MLOAD PUSH1 0x20 ADD PUSH2 0x547 SWAP2 SWAP1 PUSH2 0xB24 JUMP JUMPDEST PUSH1 0x40 MLOAD PUSH1 0x20 DUP2 DUP4 SUB SUB DUP2 MSTORE SWAP1 PUSH1 0x40 MSTORE SWAP1 POP SWAP2 SWAP1 POP JUMP JUMPDEST PUSH1 0x5 PUSH1 0x20 MSTORE DUP2 PUSH1 0x0 MSTORE PUSH1 0x40 PUSH1 0x0 KECCAK256 DUP2 DUP2 SLOAD DUP2 LT PUSH2 0x579 JUMPI PUSH1 0x0 DUP1 REVERT JUMPDEST SWAP1 PUSH1 0x0 MSTORE PUSH1 0x20 PUSH1 0x0 KECCAK256 ADD PUSH1 0x0 SWAP2 POP SWAP2 POP POP SLOAD DUP2 JUMP JUMPDEST PUSH1 0x60 PUSH1 0x0 DUP3 SUB PUSH2 0x5D5 JUMPI PUSH1 0x40 MLOAD DUP1 PUSH1 0x40 ADD PUSH1 0x40 MSTORE DUP1 PUSH1 0x1 DUP2 MSTORE PUSH1 0x20 ADD PUSH32 0x3000000000000000000000000000000000000000000000000000000000000000 DUP2 MSTORE POP SWAP1 POP PUSH2 0x6E7 JUMP JUMPDEST PUSH1 0x0 DUP3 SWAP1 POP PUSH1 0x0 JUMPDEST PUSH1 0x0 DUP3 EQ PUSH2 0x605 JUMPI DUP1 PUSH2 0x5EF SWAP1 PUSH2 0x9E8 JUMP JUMPDEST SWAP1 POP PUSH1 0xA DUP3 PUSH2 0x5FE SWAP2 SWAP1 PUSH2 0xB75 JUMP JUMPDEST SWAP2 POP PUSH2 0x5DD JUMP JUMPDEST PUSH1 0x0 DUP2 PUSH8 0xFFFFFFFFFFFFFFFF DUP2 GT ISZERO PUSH2 0x621 JUMPI PUSH2 0x620 PUSH2 0xBA6 JUMP JUMPDEST JUMPDEST PUSH1 0x40 MLOAD SWAP1 DUP1 DUP3 MSTORE DUP1 PUSH1 0x1F ADD PUSH1 0x1F NOT AND PUSH1 0x20 ADD DUP3 ADD PUSH1 0x40 MSTORE DUP1 ISZERO PUSH2 0x653 JUMPI DUP2 PUSH1 0x20 ADD PUSH1 0x1 DUP3 MUL DUP1 CALLDATASIZE DUP4 CALLDATACOPY DUP1 DUP3 ADD SWAP2 POP POP SWAP1 POP JUMPDEST POP SWAP1 POP JUMPDEST PUSH1 0x0 DUP6 EQ PUSH2 0x6E0 JUMPI PUSH1 0x1 DUP3 PUSH2 0x66C SWAP2 SWAP1 PUSH2 0xBD5 JUMP JUMPDEST SWAP2 POP PUSH1 0xA DUP6 PUSH2 0x67B SWAP2 SWAP1 PUSH2 0xC09 JUMP JUMPDEST PUSH1 0x30 PUSH2 0x687 SWAP2 SWAP1 PUSH2 0x9B4 JUMP JUMPDEST PUSH1 0xF8 SHL DUP2 DUP4 DUP2 MLOAD DUP2 LT PUSH2 0x69D JUMPI PUSH2 0x69C PUSH2 0xC3A JUMP JUMPDEST JUMPDEST PUSH1 0x20 ADD ADD SWAP1 PUSH31 0xFFFFFFFFFFFFFFFFFFFFFFFFFFFFFFFFFFFFFFFFFFFFFFFFFFFFFFFFFFFFFF NOT AND SWAP1 DUP2 PUSH1 0x0 BYTE SWAP1 MSTORE8 POP PUSH1 0xA DUP6 PUSH2 0x6D9 SWAP2 SWAP1 PUSH2 0xB75 JUMP JUMPDEST SWAP5 POP PUSH2 0x657 JUMP JUMPDEST DUP1 SWAP4 POP POP POP POP JUMPDEST SWAP2 SWAP1 POP JUMP JUMPDEST PUSH1 0x0 DUP1 REVERT JUMPDEST PUSH1 0x0 DUP2 SWAP1 POP SWAP2 SWAP1 POP JUMP JUMPDEST PUSH2 0x704 DUP2 PUSH2 0x6F1 JUMP JUMPDEST DUP2 EQ PUSH2 0x70F JUMPI PUSH1 0x0 DUP1 REVERT JUMPDEST POP JUMP JUMPDEST PUSH1 0x0 DUP2 CALLDATALOAD SWAP1 POP PUSH2 0x721 DUP2 PUSH2 0x6FB JUMP JUMPDEST SWAP3 SWAP2 POP POP JUMP JUMPDEST PUSH1 0x0 PUSH1 0x20 DUP3 DUP5 SUB SLT ISZERO PUSH2 0x73D JUMPI PUSH2 0x73C PUSH2 0x6EC JUMP JUMPDEST JUMPDEST PUSH1 0x0 PUSH2 0x74B DUP5 DUP3 DUP6 ADD PUSH2 0x712 JUMP JUMPDEST SWAP2 POP POP SWAP3 SWAP2 POP POP JUMP JUMPDEST PUSH1 0x0 PUSH20 0xFFFFFFFFFFFFFFFFFFFFFFFFFFFFFFFFFFFFFFFF DUP3 AND SWAP1 POP SWAP2 SWAP1 POP JUMP JUMPDEST PUSH1 0x0 PUSH2 0x77F DUP3 PUSH2 0x754 JUMP JUMPDEST SWAP1 POP SWAP2 SWAP1 POP JUMP JUMPDEST PUSH2 0x78F DUP2 PUSH2 0x774 JUMP JUMPDEST DUP3 MSTORE POP POP JUMP JUMPDEST PUSH1 0x0 PUSH1 0x20 DUP3 ADD SWAP1 POP PUSH2 0x7AA PUSH1 0x0 DUP4 ADD DUP5 PUSH2 0x786 JUMP JUMPDEST SWAP3 SWAP2 POP POP JUMP JUMPDEST PUSH1 0x0 DUP2 MLOAD SWAP1 POP SWAP2 SWAP1 POP JUMP JUMPDEST PUSH1 0x0 DUP3 DUP3 MSTORE PUSH1 0x20 DUP3 ADD SWAP1 POP SWAP3 SWAP2 POP POP JUMP JUMPDEST PUSH1 0x0 JUMPDEST DUP4 DUP2 LT ISZERO PUSH2 0x7EA JUMPI DUP1 DUP3 ADD MLOAD DUP2 DUP5 ADD MSTORE PUSH1 0x20 DUP2 ADD SWAP1 POP PUSH2 0x7CF JUMP JUMPDEST PUSH1 0x0 DUP5 DUP5 ADD MSTORE POP POP POP POP JUMP JUMPDEST PUSH1 0x0 PUSH1 0x1F NOT PUSH1 0x1F DUP4 ADD AND SWAP1 POP SWAP2 SWAP1 POP JUMP JUMPDEST PUSH1 0x0 PUSH2 0x812 DUP3 PUSH2 0x7B0 JUMP JUMPDEST PUSH2 0x81C DUP2 DUP6 PUSH2 0x7BB JUMP JUMPDEST SWAP4 POP PUSH2 0x82C DUP2 DUP6 PUSH1 0x20 DUP7 ADD PUSH2 0x7CC JUMP JUMPDEST PUSH2 0x835 DUP2 PUSH2 0x7F6 JUMP JUMPDEST DUP5 ADD SWAP2 POP POP SWAP3 SWAP2 POP POP JUMP JUMPDEST PUSH1 0x0 PUSH1 0x20 DUP3 ADD SWAP1 POP DUP2 DUP2 SUB PUSH1 0x0 DUP4 ADD MSTORE PUSH2 0x85A DUP2 DUP5 PUSH2 0x807 JUMP JUMPDEST SWAP1 POP SWAP3 SWAP2 POP POP JUMP JUMPDEST PUSH2 0x86B DUP2 PUSH2 0x774 JUMP JUMPDEST DUP2 EQ PUSH2 0x876 JUMPI PUSH1 0x0 DUP1 REVERT JUMPDEST POP JUMP JUMPDEST PUSH1 0x0 DUP2 CALLDATALOAD SWAP1 POP PUSH2 0x888 DUP2 PUSH2 0x862 JUMP JUMPDEST SWAP3 SWAP2 POP POP JUMP JUMPDEST PUSH1 0x0 PUSH1 0x20 DUP3 DUP5 SUB SLT ISZERO PUSH2 0x8A4 JUMPI PUSH2 0x8A3 PUSH2 0x6EC JUMP JUMPDEST JUMPDEST PUSH1 0x0 PUSH2 0x8B2 DUP5 DUP3 DUP6 ADD PUSH2 0x879 JUMP JUMPDEST SWAP2 POP POP SWAP3 SWAP2 POP POP JUMP JUMPDEST PUSH2 0x8C4 DUP2 PUSH2 0x6F1 JUMP JUMPDEST DUP3 MSTORE POP POP JUMP JUMPDEST PUSH1 0x0 PUSH1 0x20 DUP3 ADD SWAP1 POP PUSH2 0x8DF PUSH1 0x0 DUP4 ADD DUP5 PUSH2 0x8BB JUMP JUMPDEST SWAP3 SWAP2 POP POP JUMP JUMPDEST PUSH1 0x0 DUP1 PUSH1 0x40 DUP4 DUP6 SUB SLT ISZERO PUSH2 0x8FC JUMPI PUSH2 0x8FB PUSH2 0x6EC JUMP JUMPDEST JUMPDEST PUSH1 0x0 PUSH2 0x90A DUP6 DUP3 DUP7 ADD PUSH2 0x879 JUMP JUMPDEST SWAP3 POP POP PUSH1 0x20 PUSH2 0x91B DUP6 DUP3 DUP7 ADD PUSH2 0x712 JUMP JUMPDEST SWAP2 POP POP SWAP3 POP SWAP3 SWAP1 POP JUMP JUMPDEST PUSH32 0x4E487B7100000000000000000000000000000000000000000000000000000000 PUSH1 0x0 MSTORE PUSH1 0x22 PUSH1 0x4 MSTORE PUSH1 0x24 PUSH1 0x0 REVERT JUMPDEST PUSH1 0x0 PUSH1 0x2 DUP3 DIV SWAP1 POP PUSH1 0x1 DUP3 AND DUP1 PUSH2 0x96C JUMPI PUSH1 0x7F DUP3 AND SWAP2 POP JUMPDEST PUSH1 0x20 DUP3 LT DUP2 SUB PUSH2 0x97F JUMPI PUSH2 0x97E PUSH2 0x925 JUMP JUMPDEST JUMPDEST POP SWAP2 SWAP1 POP JUMP JUMPDEST PUSH32 0x4E487B7100000000000000000000000000000000000000000000000000000000 PUSH1 0x0 MSTORE PUSH1 0x11 PUSH1 0x4 MSTORE PUSH1 0x24 PUSH1 0x0 REVERT JUMPDEST PUSH1 0x0 PUSH2 0x9BF DUP3 PUSH2 0x6F1 JUMP JUMPDEST SWAP2 POP PUSH2 0x9CA DUP4 PUSH2 0x6F1 JUMP JUMPDEST SWAP3 POP DUP3 DUP3 ADD SWAP1 POP DUP1 DUP3 GT ISZERO PUSH2 0x9E2 JUMPI PUSH2 0x9E1 PUSH2 0x985 JUMP JUMPDEST JUMPDEST SWAP3 SWAP2 POP POP JUMP JUMPDEST PUSH1 0x0 PUSH2 0x9F3 DUP3 PUSH2 0x6F1 JUMP JUMPDEST SWAP2 POP PUSH32 0xFFFFFFFFFFFFFFFFFFFFFFFFFFFFFFFFFFFFFFFFFFFFFFFFFFFFFFFFFFFFFFFF DUP3 SUB PUSH2 0xA25 JUMPI PUSH2 0xA24 PUSH2 0x985 JUMP JUMPDEST JUMPDEST PUSH1 0x1 DUP3 ADD SWAP1 POP SWAP2 SWAP1 POP JUMP JUMPDEST PUSH32 0x546F6B656E20646F6573206E6F74206578697374000000000000000000000000 PUSH1 0x0 DUP3 ADD MSTORE POP JUMP JUMPDEST PUSH1 0x0 PUSH2 0xA66 PUSH1 0x14 DUP4 PUSH2 0x7BB JUMP JUMPDEST SWAP2 POP PUSH2 0xA71 DUP3 PUSH2 0xA30 JUMP JUMPDEST PUSH1 0x20 DUP3 ADD SWAP1 POP SWAP2 SWAP1 POP JUMP JUMPDEST PUSH1 0x0 PUSH1 0x20 DUP3 ADD SWAP1 POP DUP2 DUP2 SUB PUSH1 0x0 DUP4 ADD MSTORE PUSH2 0xA95 DUP2 PUSH2 0xA59 JUMP JUMPDEST SWAP1 POP SWAP2 SWAP1 POP JUMP JUMPDEST PUSH1 0x0 DUP2 SWAP1 POP SWAP3 SWAP2 POP POP JUMP JUMPDEST PUSH32 0x68747470733A2F2F7777772E676F6F676C652E636F6D2F7365617263683F713D PUSH1 0x0 DUP3 ADD MSTORE POP JUMP JUMPDEST PUSH1 0x0 PUSH2 0xADD PUSH1 0x20 DUP4 PUSH2 0xA9C JUMP JUMPDEST SWAP2 POP PUSH2 0xAE8 DUP3 PUSH2 0xAA7 JUMP JUMPDEST PUSH1 0x20 DUP3 ADD SWAP1 POP SWAP2 SWAP1 POP JUMP JUMPDEST PUSH1 0x0 PUSH2 0xAFE DUP3 PUSH2 0x7B0 JUMP JUMPDEST PUSH2 0xB08 DUP2 DUP6 PUSH2 0xA9C JUMP JUMPDEST SWAP4 POP PUSH2 0xB18 DUP2 DUP6 PUSH1 0x20 DUP7 ADD PUSH2 0x7CC JUMP JUMPDEST DUP1 DUP5 ADD SWAP2 POP POP SWAP3 SWAP2 POP POP JUMP JUMPDEST PUSH1 0x0 PUSH2 0xB2F DUP3 PUSH2 0xAD0 JUMP JUMPDEST SWAP2 POP PUSH2 0xB3B DUP3 DUP5 PUSH2 0xAF3 JUMP JUMPDEST SWAP2 POP DUP2 SWAP1 POP SWAP3 SWAP2 POP POP JUMP JUMPDEST PUSH32 0x4E487B7100000000000000000000000000000000000000000000000000000000 PUSH1 0x0 MSTORE PUSH1 0x12 PUSH1 0x4 MSTORE PUSH1 0x24 PUSH1 0x0 REVERT JUMPDEST PUSH1 0x0 PUSH2 0xB80 DUP3 PUSH2 0x6F1 JUMP JUMPDEST SWAP2 POP PUSH2 0xB8B DUP4 PUSH2 0x6F1 JUMP JUMPDEST SWAP3 POP DUP3 PUSH2 0xB9B JUMPI PUSH2 0xB9A PUSH2 0xB46 JUMP JUMPDEST JUMPDEST DUP3 DUP3 DIV SWAP1 POP SWAP3 SWAP2 POP POP JUMP JUMPDEST PUSH32 0x4E487B7100000000000000000000000000000000000000000000000000000000 PUSH1 0x0 MSTORE PUSH1 0x41 PUSH1 0x4 MSTORE PUSH1 0x24 PUSH1 0x0 REVERT JUMPDEST PUSH1 0x0 PUSH2 0xBE0 DUP3 PUSH2 0x6F1 JUMP JUMPDEST SWAP2 POP PUSH2 0xBEB DUP4 PUSH2 0x6F1 JUMP JUMPDEST SWAP3 POP DUP3 DUP3 SUB SWAP1 POP DUP2 DUP2 GT ISZERO PUSH2 0xC03 JUMPI PUSH2 0xC02 PUSH2 0x985 JUMP JUMPDEST JUMPDEST SWAP3 SWAP2 POP POP JUMP JUMPDEST PUSH1 0x0 PUSH2 0xC14 DUP3 PUSH2 0x6F1 JUMP JUMPDEST SWAP2 POP PUSH2 0xC1F DUP4 PUSH2 0x6F1 JUMP JUMPDEST SWAP3 POP DUP3 PUSH2 0xC2F JUMPI PUSH2 0xC2E PUSH2 0xB46 JUMP JUMPDEST JUMPDEST DUP3 DUP3 MOD SWAP1 POP SWAP3 SWAP2 POP POP JUMP JUMPDEST PUSH32 0x4E487B7100000000000000000000000000000000000000000000000000000000 PUSH1 0x0 MSTORE PUSH1 0x32 PUSH1 0x4 MSTORE PUSH1 0x24 PUSH1 0x0 REVERT INVALID LOG2 PUSH5 0x6970667358 0x22 SLT KECCAK256 0xC GT SLOAD 0xC3 0xCB GASLIMIT SWAP16 PUSH16 0x19AB324521014D616A497615572EF132 PREVRANDAO PUSH4 0x3DD5D8A5 CALLDATACOPY 0xC7 PUSH5 0x736F6C6343 STOP ADDMOD SLT STOP CALLER "
				},
				"gasEstimates": {
					"creation": {
						"codeDepositCost": "646200",
						"executionCost": "infinite",
						"totalCost": "infinite"
					},
					"external": {
						"_mint(address)": "infinite",
						"name()": "infinite",
						"ownedTokens(address,uint256)": "infinite",
						"owners(uint256)": "2840",
						"symbol()": "infinite",
						"tokenURI(uint256)": "infinite",
						"tokenURIs(uint256)": "infinite"
					},
					"internal": {
						"uint2str(uint256)": "infinite"
					}
				},
				"methodIdentifiers": {
					"_mint(address)": "09aa7b67",
					"name()": "06fdde03",
					"ownedTokens(address,uint256)": "e149f036",
					"owners(uint256)": "025e7c27",
					"symbol()": "95d89b41",
					"tokenURI(uint256)": "c87b56dd",
					"tokenURIs(uint256)": "6c8b703f"
				}
			},
			"storageLayout": {
				"storage": [
					{
						"astId": 3,
						"contract": "createErc721.sol:CreateErc721",
						"label": "name",
						"offset": 0,
						"slot": "0",
						"type": "t_string_storage"
					},
					{
						"astId": 5,
						"contract": "createErc721.sol:CreateErc721",
						"label": "symbol",
						"offset": 0,
						"slot": "1",
						"type": "t_string_storage"
					},
					{
						"astId": 7,
						"contract": "createErc721.sol:CreateErc721",
						"label": "totalTokens",
						"offset": 0,
						"slot": "2",
						"type": "t_uint256"
					},
					{
						"astId": 11,
						"contract": "createErc721.sol:CreateErc721",
						"label": "dd",
						"offset": 0,
						"slot": "3",
						"type": "t_mapping(t_address,t_bool)"
					},
					{
						"astId": 15,
						"contract": "createErc721.sol:CreateErc721",
						"label": "owners",
						"offset": 0,
						"slot": "4",
						"type": "t_mapping(t_uint256,t_address)"
					},
					{
						"astId": 20,
						"contract": "createErc721.sol:CreateErc721",
						"label": "ownedTokens",
						"offset": 0,
						"slot": "5",
						"type": "t_mapping(t_address,t_array(t_uint256)dyn_storage)"
					},
					{
						"astId": 24,
						"contract": "createErc721.sol:CreateErc721",
						"label": "tokenURIs",
						"offset": 0,
						"slot": "6",
						"type": "t_mapping(t_uint256,t_string_storage)"
					}
				],
				"types": {
					"t_address": {
						"encoding": "inplace",
						"label": "address",
						"numberOfBytes": "20"
					},
					"t_array(t_uint256)dyn_storage": {
						"base": "t_uint256",
						"encoding": "dynamic_array",
						"label": "uint256[]",
						"numberOfBytes": "32"
					},
					"t_bool": {
						"encoding": "inplace",
						"label": "bool",
						"numberOfBytes": "1"
					},
					"t_mapping(t_address,t_array(t_uint256)dyn_storage)": {
						"encoding": "mapping",
						"key": "t_address",
						"label": "mapping(address => uint256[])",
						"numberOfBytes": "32",
						"value": "t_array(t_uint256)dyn_storage"
					},
					"t_mapping(t_address,t_bool)": {
						"encoding": "mapping",
						"key": "t_address",
						"label": "mapping(address => bool)",
						"numberOfBytes": "32",
						"value": "t_bool"
					},
					"t_mapping(t_uint256,t_address)": {
						"encoding": "mapping",
						"key": "t_uint256",
						"label": "mapping(uint256 => address)",
						"numberOfBytes": "32",
						"value": "t_address"
					},
					"t_mapping(t_uint256,t_string_storage)": {
						"encoding": "mapping",
						"key": "t_uint256",
						"label": "mapping(uint256 => string)",
						"numberOfBytes": "32",
						"value": "t_string_storage"
					},
					"t_string_storage": {
						"encoding": "bytes",
						"label": "string",
						"numberOfBytes": "32"
					},
					"t_uint256": {
						"encoding": "inplace",
						"label": "uint256",
						"numberOfBytes": "32"
					}
				}
			},
			"userdoc": {
				"kind": "user",
				"methods": {},
				"version": 1
			}
		}
	}
}